{"contracts/aave-hf-guard/AaveHFCallback.sol":{"AaveHFCallback":{"abi":[{"inputs":[{"internalType":"address","name":"_reactiveNetworkSender","type":"address"}],"stateMutability":"nonpayable","type":"constructor"},{"anonymous":false,"inputs":[{"indexed":false,"internalType":"uint256","name":"checked","type":"uint256"},{"indexed":false,"internalType":"uint256","name":"triggered","type":"uint256"},{"indexed":false,"internalType":"uint256","name":"expired","type":"uint256"}],"name":"CycleCompleted","type":"event"},{"anonymous":false,"inputs":[{"indexed":true,"internalType":"uint256","name":"id","type":"uint256"},{"indexed":true,"internalType":"address","name":"protectedUser","type":"address"}],"name":"HealthCheckFailed","type":"event"},{"anonymous":false,"inputs":[{"indexed":true,"internalType":"uint256","name":"id","type":"uint256"},{"indexed":true,"internalType":"address","name":"protectedUser","type":"address"},{"indexed":false,"internalType":"uint256","name":"healthFactor","type":"uint256"}],"name":"ProtectionTriggered","type":"event"},{"anonymous":false,"inputs":[{"indexed":true,"internalType":"uint256","name":"id","type":"uint256"}],"name":"SubscriptionExpired","type":"event"},{"anonymous":false,"inputs":[{"indexed":true,"internalType":"uint256","name":"id","type":"uint256"},{"indexed":true,"internalType":"address","name":"agent","type":"address"},{"indexed":true,"internalType":"address","name":"protectedUser","type":"address"},{"indexed":false,"internalType":"uint256","name":"threshold","type":"uint256"},{"indexed":false,"internalType":"uint256","name":"expiresAt","type":"uint256"}],"name":"SubscriptionRegistered","type":"event"},{"inputs":[],"name":"AAVE_POOL","outputs":[{"internalType":"address","name":"","type":"address"}],"stateMutability":"view","type":"function"},{"inputs":[{"internalType":"uint256","name":"","type":"uint256"}],"name":"activeIds","outputs":[{"internalType":"uint256","name":"","type":"uint256"}],"stateMutability":"view","type":"function"},{"inputs":[],"name":"activeSubscriptionCount","outputs":[{"internalType":"uint256","name":"","type":"uint256"}],"stateMutability":"view","type":"function"},{"inputs":[{"internalType":"uint256","name":"id","type":"uint256"}],"name":"cancelSubscription","outputs":[],"stateMutability":"nonpayable","type":"function"},{"inputs":[],"name":"getActiveIds","outputs":[{"internalType":"uint256[]","name":"","type":"uint256[]"}],"stateMutability":"view","type":"function"},{"inputs":[{"internalType":"uint256","name":"id","type":"uint256"}],"name":"getSubscription","outputs":[{"components":[{"internalType":"address","name":"agent","type":"address"},{"internalType":"address","name":"protectedUser","type":"address"},{"internalType":"address","name":"collateralAsset","type":"address"},{"internalType":"uint256","name":"threshold","type":"uint256"},{"internalType":"uint256","name":"collateralAmount","type":"uint256"},{"internalType":"uint256","name":"expiresAt","type":"uint256"},{"internalType":"bool","name":"active","type":"bool"}],"internalType":"struct AaveHFCallback.Subscription","name":"","type":"tuple"}],"stateMutability":"view","type":"function"},{"inputs":[],"name":"nextId","outputs":[{"internalType":"uint256","name":"","type":"uint256"}],"stateMutability":"view","type":"function"},{"inputs":[],"name":"owner","outputs":[{"internalType":"address","name":"","type":"address"}],"stateMutability":"view","type":"function"},{"inputs":[],"name":"reactiveNetworkSender","outputs":[{"internalType":"address","name":"","type":"address"}],"stateMutability":"view","type":"function"},{"inputs":[{"internalType":"address","name":"agent","type":"address"},{"internalType":"address","name":"protectedUser","type":"address"},{"internalType":"address","name":"collateralAsset","type":"address"},{"internalType":"uint256","name":"threshold","type":"uint256"},{"internalType":"uint256","name":"collateralAmount","type":"uint256"},{"internalType":"uint256","name":"duration","type":"uint256"}],"name":"register","outputs":[{"internalType":"uint256","name":"id","type":"uint256"}],"stateMutability":"nonpayable","type":"function"},{"inputs":[],"name":"runCycle","outputs":[],"stateMutability":"nonpayable","type":"function"},{"inputs":[{"internalType":"uint256","name":"","type":"uint256"}],"name":"subscriptions","outputs":[{"internalType":"address","name":"agent","type":"address"},{"internalType":"address","name":"protectedUser","type":"address"},{"internalType":"address","name":"collateralAsset","type":"address"},{"internalType":"uint256","name":"threshold","type":"uint256"},{"internalType":"uint256","name":"collateralAmount","type":"uint256"},{"internalType":"uint256","name":"expiresAt","type":"uint256"},{"internalType":"bool","name":"active","type":"bool"}],"stateMutability":"view","type":"function"},{"inputs":[{"internalType":"address","name":"newOwner","type":"address"}],"name":"transferOwnership","outputs":[],"stateMutability":"nonpayable","type":"function"},{"inputs":[{"internalType":"address","name":"newSender","type":"address"}],"name":"updateReactiveNetworkSender","outputs":[],"stateMutability":"nonpayable","type":"function"},{"stateMutability":"payable","type":"receive"}],"evm":{"bytecode":{"linkReferences":{},"object":"608060405234801561001057600080fd5b5060405161146e38038061146e83398101604081905261002f91610062565b60008054336001600160a01b031991821617909155600180549091166001600160a01b0392909216919091179055610092565b60006020828403121561007457600080fd5b81516001600160a01b038116811461008b57600080fd5b9392505050565b6113cd806100a16000396000f3fe6080604052600436106100e15760003560e01c8063884f00751161007f578063dc311dd311610059578063dc311dd3146102e0578063f1e1c92b1461040b578063f2fde38b1461042b578063f4dd8c361461044b57600080fd5b8063884f00751461028b5780638da5cb5b146102ab578063b16abdd4146102cb57600080fd5b80632d5bbf60116100bb5780632d5bbf60146101765780633698b86114610227578063386797611461025557806361b8ce8c1461027557600080fd5b806308a01675146100ed57806311e40a8d14610132578063212350831461015457600080fd5b366100e857005b600080fd5b3480156100f957600080fd5b50610115736ae43d3271ff6888e7fc43fd7321a503ff73895181565b6040516001600160a01b0390911681526020015b60405180910390f35b34801561013e57600080fd5b50610147610460565b6040516101299190611157565b34801561016057600080fd5b5061017461016f36600461119b565b6104b8565b005b34801561018257600080fd5b506101e161019136600461119b565b600360208190526000918252604090912080546001820154600283015493830154600484015460058501546006909501546001600160a01b03948516969385169593909416939192909160ff1687565b604080516001600160a01b039889168152968816602088015294909616938501939093526060840191909152608083015260a082015290151560c082015260e001610129565b34801561023357600080fd5b5061024761024236600461119b565b6105b2565b604051908152602001610129565b34801561026157600080fd5b506101746102703660046111d0565b6105d3565b34801561028157600080fd5b5061024760025481565b34801561029757600080fd5b50600154610115906001600160a01b031681565b3480156102b757600080fd5b50600054610115906001600160a01b031681565b3480156102d757600080fd5b50600454610247565b3480156102ec57600080fd5b506103ab6102fb36600461119b565b6040805160e081018252600080825260208201819052918101829052606081018290526080810182905260a0810182905260c081019190915250600090815260036020818152604092839020835160e08101855281546001600160a01b039081168252600183015481169382019390935260028201549092169382019390935290820154606082015260048201546080820152600582015460a082015260069091015460ff16151560c082015290565b6040805182516001600160a01b039081168252602080850151821690830152838301511691810191909152606080830151908201526080808301519082015260a0808301519082015260c09182015115159181019190915260e001610129565b34801561041757600080fd5b506102476104263660046111f2565b61061f565b34801561043757600080fd5b506101746104463660046111d0565b610aa3565b34801561045757600080fd5b50610174610b34565b606060048054806020026020016040519081016040528092919081815260200182805480156104ae57602002820191906000526020600020905b81548152602001906001019080831161049a575b5050505050905090565b6000818152600360205260409020600681015460ff1661050c5760405162461bcd60e51b815260206004820152600a6024820152694e6f742061637469766560b01b60448201526064015b60405180910390fd5b80546001600160a01b031633148061052e57506000546001600160a01b031633145b6105695760405162461bcd60e51b815260206004820152600c60248201526b155b985d5d1a1bdc9a5e995960a21b6044820152606401610503565b6000828152600560205260409020546105828382610e3d565b60405183907f3ba88dbd17f56b4d283dc25a121073c946c9052c9829a3c4147dcc1841ce068e90600090a2505050565b600481815481106105c257600080fd5b600091825260209091200154905081565b6000546001600160a01b031633146105fd5760405162461bcd60e51b815260040161050390611251565b600180546001600160a01b0319166001600160a01b0392909216919091179055565b600080546001600160a01b0316331461064a5760405162461bcd60e51b815260040161050390611251565b6001600160a01b03871661068d5760405162461bcd60e51b815260206004820152600a60248201526916995c9bc81859d95b9d60b21b6044820152606401610503565b6001600160a01b0386166106cf5760405162461bcd60e51b81526020600482015260096024820152682d32b937903ab9b2b960b91b6044820152606401610503565b6001600160a01b0385166107125760405162461bcd60e51b815260206004820152600a60248201526916995c9bc8185cdcd95d60b21b6044820152606401610503565b600084116107535760405162461bcd60e51b815260206004820152600e60248201526d16995c9bc81d1a1c995cda1bdb1960921b6044820152606401610503565b600082118015610766575062278d008211155b6107a15760405162461bcd60e51b815260206004820152600c60248201526b2130b210323ab930ba34b7b760a11b6044820152606401610503565b600083116107ea5760405162461bcd60e51b815260206004820152601660248201527516995c9bc818dbdb1b185d195c985b08185b5bdd5b9d60521b6044820152606401610503565b604051636eb1769f60e11b81526001600160a01b03888116600483015230602483015284919087169063dd62ed3e90604401602060405180830381865afa158015610839573d6000803e3d6000fd5b505050506040513d601f19601f8201168201806040525081019061085d9190611274565b10156108ab5760405162461bcd60e51b815260206004820181905260248201527f496e73756666696369656e7420636f6c6c61746572616c20617070726f76616c6044820152606401610503565b600280549060006108bb836112a3565b90915550905060006108cd83426112bc565b90506040518060e00160405280896001600160a01b03168152602001886001600160a01b03168152602001876001600160a01b03168152602001868152602001858152602001828152602001600115158152506003600084815260200190815260200160002060008201518160000160006101000a8154816001600160a01b0302191690836001600160a01b0316021790555060208201518160010160006101000a8154816001600160a01b0302191690836001600160a01b0316021790555060408201518160020160006101000a8154816001600160a01b0302191690836001600160a01b03160217905550606082015181600301556080820151816004015560a0820151816005015560c08201518160060160006101000a81548160ff02191690831515021790555090505060048054905060056000848152602001908152602001600020819055506004829080600181540180825580915050600190039060005260206000200160009091909190915055866001600160a01b0316886001600160a01b0316837f41310595b97f2ff5ace61e59e0b13b7adef66393293e864c9fe7df475d6ecb338885604051610a90929190918252602082015260400190565b60405180910390a4509695505050505050565b6000546001600160a01b03163314610acd5760405162461bcd60e51b815260040161050390611251565b6001600160a01b038116610b125760405162461bcd60e51b815260206004820152600c60248201526b5a65726f206164647265737360a01b6044820152606401610503565b600080546001600160a01b0319166001600160a01b0392909216919091179055565b6001546001600160a01b0316331480610b5757506000546001600160a01b031633145b610b945760405162461bcd60e51b815260206004820152600e60248201526d139bdd08185d5d1a1bdc9a5e995960921b6044820152606401610503565b600454600090819081905b8015610df65780610baf816112d5565b915050600060048281548110610bc757610bc76112ec565b90600052602060002001549050600060036000838152602001908152602001600020905080600501544210610c4057610c008284610e3d565b83610c0a816112a3565b6040519095508391507f3ba88dbd17f56b4d283dc25a121073c946c9052c9829a3c4147dcc1841ce068e90600090a25050610b9f565b6001810154604051632fe4a15f60e21b81526001600160a01b039091166004820152736ae43d3271ff6888e7fc43fd7321a503ff7389519063bf92857c9060240160c060405180830381865afa925050508015610cba575060408051601f3d908101601f19168201909252610cb791810190611302565b60015b610cff5760018101546040516001600160a01b039091169083907fe306bbd5b3c22c5207151eebf7dd82799c317a6c68be14202dde29f8bec9338c90600090a3610def565b8b610d09816112a3565b9c5050600019811480610d1a575080155b15610d2c575050505050505050610b9f565b8660030154811015610de8576000610d4388610f01565b90508015610da2578b610d55816112a3565b60018a0154604051858152919e506001600160a01b031691508a907fe28026915af2d467e2e22de48fd06f32fc2dfeef76badc0dac877f8d877544509060200160405180910390a3610de6565b610dac898b610e3d565b8a610db6816112a3565b604051909c508a91507f3ba88dbd17f56b4d283dc25a121073c946c9052c9829a3c4147dcc1841ce068e90600090a25b505b5050505050505b5050610b9f565b60408051858152602081018590529081018390527f188dffc590872dc919b0e448791f95e29ebd499b88d4318fc474dfc17aac6e3e9060600160405180910390a150505050565b6000828152600360205260408120600601805460ff19169055600454610e659060019061134c565b9050808214610ec457600060048281548110610e8357610e836112ec565b906000526020600020015490508060048481548110610ea457610ea46112ec565b600091825260208083209091019290925591825260059052604090208290555b6004805480610ed557610ed561135f565b600082815260208082208301600019908101839055909201909255938152600590935250506040812055565b60028101546004808301548354604051636eb1769f60e11b81526001600160a01b03918216938101939093523060248401526000931691829063dd62ed3e90604401602060405180830381865afa158015610f60573d6000803e3d6000fd5b505050506040513d601f19601f82011682018060405250810190610f849190611274565b1015610f935750600092915050565b82546004808501546040516323b872dd60e01b81526001600160a01b03938416928101929092523060248301526044820152908216906323b872dd906064016020604051808303816000875af192505050801561100d575060408051601f3d908101601f1916820190925261100a91810190611375565b60015b61101a5750600092915050565b80611029575060009392505050565b5060048381015460405163095ea7b360e01b8152736ae43d3271ff6888e7fc43fd7321a503ff7389519281019290925260248201526001600160a01b0382169063095ea7b3906044016020604051808303816000875af1158015611091573d6000803e3d6000fd5b505050506040513d601f19601f820116820180604052508101906110b59190611375565b506002830154600480850154600186015460405163617ba03760e01b81526001600160a01b0394851693810193909352602483019190915291909116604482015260006064820152736ae43d3271ff6888e7fc43fd7321a503ff7389519063617ba03790608401600060405180830381600087803b15801561113657600080fd5b505af115801561114a573d6000803e3d6000fd5b5060019695505050505050565b6020808252825182820181905260009190848201906040850190845b8181101561118f57835183529284019291840191600101611173565b50909695505050505050565b6000602082840312156111ad57600080fd5b5035919050565b80356001600160a01b03811681146111cb57600080fd5b919050565b6000602082840312156111e257600080fd5b6111eb826111b4565b9392505050565b60008060008060008060c0878903121561120b57600080fd5b611214876111b4565b9550611222602088016111b4565b9450611230604088016111b4565b9350606087013592506080870135915060a087013590509295509295509295565b6020808252600990820152682737ba1037bbb732b960b91b604082015260600190565b60006020828403121561128657600080fd5b5051919050565b634e487b7160e01b600052601160045260246000fd5b6000600182016112b5576112b561128d565b5060010190565b808201808211156112cf576112cf61128d565b92915050565b6000816112e4576112e461128d565b506000190190565b634e487b7160e01b600052603260045260246000fd5b60008060008060008060c0878903121561131b57600080fd5b865195506020870151945060408701519350606087015192506080870151915060a087015190509295509295509295565b818103818111156112cf576112cf61128d565b634e487b7160e01b600052603160045260246000fd5b60006020828403121561138757600080fd5b815180151581146111eb57600080fdfea26469706673582212200794054f35fd1a8731948639c600bf160ad4bdbf248350ad342393104bc3a10864736f6c63430008180033","opcodes":"PUSH1 0x80 PUSH1 0x40 MSTORE CALLVALUE DUP1 ISZERO PUSH2 0x10 JUMPI PUSH1 0x0 DUP1 REVERT JUMPDEST POP PUSH1 0x40 MLOAD PUSH2 0x146E CODESIZE SUB DUP1 PUSH2 0x146E DUP4 CODECOPY DUP2 ADD PUSH1 0x40 DUP2 SWAP1 MSTORE PUSH2 0x2F SWAP2 PUSH2 0x62 JUMP JUMPDEST PUSH1 0x0 DUP1 SLOAD CALLER PUSH1 0x1 PUSH1 0x1 PUSH1 0xA0 SHL SUB NOT SWAP2 DUP3 AND OR SWAP1 SWAP2 SSTORE PUSH1 0x1 DUP1 SLOAD SWAP1 SWAP2 AND PUSH1 0x1 PUSH1 0x1 PUSH1 0xA0 SHL SUB SWAP3 SWAP1 SWAP3 AND SWAP2 SWAP1 SWAP2 OR SWAP1 SSTORE PUSH2 0x92 JUMP JUMPDEST PUSH1 0x0 PUSH1 0x20 DUP3 DUP5 SUB SLT ISZERO PUSH2 0x74 JUMPI PUSH1 0x0 DUP1 REVERT JUMPDEST DUP2 MLOAD PUSH1 0x1 PUSH1 0x1 PUSH1 0xA0 SHL SUB DUP2 AND DUP2 EQ PUSH2 0x8B JUMPI PUSH1 0x0 DUP1 REVERT JUMPDEST SWAP4 SWAP3 POP POP POP JUMP JUMPDEST PUSH2 0x13CD DUP1 PUSH2 0xA1 PUSH1 0x0 CODECOPY PUSH1 0x0 RETURN INVALID PUSH1 0x80 PUSH1 0x40 MSTORE PUSH1 0x4 CALLDATASIZE LT PUSH2 0xE1 JUMPI PUSH1 0x0 CALLDATALOAD PUSH1 0xE0 SHR DUP1 PUSH4 0x884F0075 GT PUSH2 0x7F JUMPI DUP1 PUSH4 0xDC311DD3 GT PUSH2 0x59 JUMPI DUP1 PUSH4 0xDC311DD3 EQ PUSH2 0x2E0 JUMPI DUP1 PUSH4 0xF1E1C92B EQ PUSH2 0x40B JUMPI DUP1 PUSH4 0xF2FDE38B EQ PUSH2 0x42B JUMPI DUP1 PUSH4 0xF4DD8C36 EQ PUSH2 0x44B JUMPI PUSH1 0x0 DUP1 REVERT JUMPDEST DUP1 PUSH4 0x884F0075 EQ PUSH2 0x28B JUMPI DUP1 PUSH4 0x8DA5CB5B EQ PUSH2 0x2AB JUMPI DUP1 PUSH4 0xB16ABDD4 EQ PUSH2 0x2CB JUMPI PUSH1 0x0 DUP1 REVERT JUMPDEST DUP1 PUSH4 0x2D5BBF60 GT PUSH2 0xBB JUMPI DUP1 PUSH4 0x2D5BBF60 EQ PUSH2 0x176 JUMPI DUP1 PUSH4 0x3698B861 EQ PUSH2 0x227 JUMPI DUP1 PUSH4 0x38679761 EQ PUSH2 0x255 JUMPI DUP1 PUSH4 0x61B8CE8C EQ PUSH2 0x275 JUMPI PUSH1 0x0 DUP1 REVERT JUMPDEST DUP1 PUSH4 0x8A01675 EQ PUSH2 0xED JUMPI DUP1 PUSH4 0x11E40A8D EQ PUSH2 0x132 JUMPI DUP1 PUSH4 0x21235083 EQ PUSH2 0x154 JUMPI PUSH1 0x0 DUP1 REVERT JUMPDEST CALLDATASIZE PUSH2 0xE8 JUMPI STOP JUMPDEST PUSH1 0x0 DUP1 REVERT JUMPDEST CALLVALUE DUP1 ISZERO PUSH2 0xF9 JUMPI PUSH1 0x0 DUP1 REVERT JUMPDEST POP PUSH2 0x115 PUSH20 0x6AE43D3271FF6888E7FC43FD7321A503FF738951 DUP2 JUMP JUMPDEST PUSH1 0x40 MLOAD PUSH1 0x1 PUSH1 0x1 PUSH1 0xA0 SHL SUB SWAP1 SWAP2 AND DUP2 MSTORE PUSH1 0x20 ADD JUMPDEST PUSH1 0x40 MLOAD DUP1 SWAP2 SUB SWAP1 RETURN JUMPDEST CALLVALUE DUP1 ISZERO PUSH2 0x13E JUMPI PUSH1 0x0 DUP1 REVERT JUMPDEST POP PUSH2 0x147 PUSH2 0x460 JUMP JUMPDEST PUSH1 0x40 MLOAD PUSH2 0x129 SWAP2 SWAP1 PUSH2 0x1157 JUMP JUMPDEST CALLVALUE DUP1 ISZERO PUSH2 0x160 JUMPI PUSH1 0x0 DUP1 REVERT JUMPDEST POP PUSH2 0x174 PUSH2 0x16F CALLDATASIZE PUSH1 0x4 PUSH2 0x119B JUMP JUMPDEST PUSH2 0x4B8 JUMP JUMPDEST STOP JUMPDEST CALLVALUE DUP1 ISZERO PUSH2 0x182 JUMPI PUSH1 0x0 DUP1 REVERT JUMPDEST POP PUSH2 0x1E1 PUSH2 0x191 CALLDATASIZE PUSH1 0x4 PUSH2 0x119B JUMP JUMPDEST PUSH1 0x3 PUSH1 0x20 DUP2 SWAP1 MSTORE PUSH1 0x0 SWAP2 DUP3 MSTORE PUSH1 0x40 SWAP1 SWAP2 KECCAK256 DUP1 SLOAD PUSH1 0x1 DUP3 ADD SLOAD PUSH1 0x2 DUP4 ADD SLOAD SWAP4 DUP4 ADD SLOAD PUSH1 0x4 DUP5 ADD SLOAD PUSH1 0x5 DUP6 ADD SLOAD PUSH1 0x6 SWAP1 SWAP6 ADD SLOAD PUSH1 0x1 PUSH1 0x1 PUSH1 0xA0 SHL SUB SWAP5 DUP6 AND SWAP7 SWAP4 DUP6 AND SWAP6 SWAP4 SWAP1 SWAP5 AND SWAP4 SWAP2 SWAP3 SWAP1 SWAP2 PUSH1 0xFF AND DUP8 JUMP JUMPDEST PUSH1 0x40 DUP1 MLOAD PUSH1 0x1 PUSH1 0x1 PUSH1 0xA0 SHL SUB SWAP9 DUP10 AND DUP2 MSTORE SWAP7 DUP9 AND PUSH1 0x20 DUP9 ADD MSTORE SWAP5 SWAP1 SWAP7 AND SWAP4 DUP6 ADD SWAP4 SWAP1 SWAP4 MSTORE PUSH1 0x60 DUP5 ADD SWAP2 SWAP1 SWAP2 MSTORE PUSH1 0x80 DUP4 ADD MSTORE PUSH1 0xA0 DUP3 ADD MSTORE SWAP1 ISZERO ISZERO PUSH1 0xC0 DUP3 ADD MSTORE PUSH1 0xE0 ADD PUSH2 0x129 JUMP JUMPDEST CALLVALUE DUP1 ISZERO PUSH2 0x233 JUMPI PUSH1 0x0 DUP1 REVERT JUMPDEST POP PUSH2 0x247 PUSH2 0x242 CALLDATASIZE PUSH1 0x4 PUSH2 0x119B JUMP JUMPDEST PUSH2 0x5B2 JUMP JUMPDEST PUSH1 0x40 MLOAD SWAP1 DUP2 MSTORE PUSH1 0x20 ADD PUSH2 0x129 JUMP JUMPDEST CALLVALUE DUP1 ISZERO PUSH2 0x261 JUMPI PUSH1 0x0 DUP1 REVERT JUMPDEST POP PUSH2 0x174 PUSH2 0x270 CALLDATASIZE PUSH1 0x4 PUSH2 0x11D0 JUMP JUMPDEST PUSH2 0x5D3 JUMP JUMPDEST CALLVALUE DUP1 ISZERO PUSH2 0x281 JUMPI PUSH1 0x0 DUP1 REVERT JUMPDEST POP PUSH2 0x247 PUSH1 0x2 SLOAD DUP2 JUMP JUMPDEST CALLVALUE DUP1 ISZERO PUSH2 0x297 JUMPI PUSH1 0x0 DUP1 REVERT JUMPDEST POP PUSH1 0x1 SLOAD PUSH2 0x115 SWAP1 PUSH1 0x1 PUSH1 0x1 PUSH1 0xA0 SHL SUB AND DUP2 JUMP JUMPDEST CALLVALUE DUP1 ISZERO PUSH2 0x2B7 JUMPI PUSH1 0x0 DUP1 REVERT JUMPDEST POP PUSH1 0x0 SLOAD PUSH2 0x115 SWAP1 PUSH1 0x1 PUSH1 0x1 PUSH1 0xA0 SHL SUB AND DUP2 JUMP JUMPDEST CALLVALUE DUP1 ISZERO PUSH2 0x2D7 JUMPI PUSH1 0x0 DUP1 REVERT JUMPDEST POP PUSH1 0x4 SLOAD PUSH2 0x247 JUMP JUMPDEST CALLVALUE DUP1 ISZERO PUSH2 0x2EC JUMPI PUSH1 0x0 DUP1 REVERT JUMPDEST POP PUSH2 0x3AB PUSH2 0x2FB CALLDATASIZE PUSH1 0x4 PUSH2 0x119B JUMP JUMPDEST PUSH1 0x40 DUP1 MLOAD PUSH1 0xE0 DUP2 ADD DUP3 MSTORE PUSH1 0x0 DUP1 DUP3 MSTORE PUSH1 0x20 DUP3 ADD DUP2 SWAP1 MSTORE SWAP2 DUP2 ADD DUP3 SWAP1 MSTORE PUSH1 0x60 DUP2 ADD DUP3 SWAP1 MSTORE PUSH1 0x80 DUP2 ADD DUP3 SWAP1 MSTORE PUSH1 0xA0 DUP2 ADD DUP3 SWAP1 MSTORE PUSH1 0xC0 DUP2 ADD SWAP2 SWAP1 SWAP2 MSTORE POP PUSH1 0x0 SWAP1 DUP2 MSTORE PUSH1 0x3 PUSH1 0x20 DUP2 DUP2 MSTORE PUSH1 0x40 SWAP3 DUP4 SWAP1 KECCAK256 DUP4 MLOAD PUSH1 0xE0 DUP2 ADD DUP6 MSTORE DUP2 SLOAD PUSH1 0x1 PUSH1 0x1 PUSH1 0xA0 SHL SUB SWAP1 DUP2 AND DUP3 MSTORE PUSH1 0x1 DUP4 ADD SLOAD DUP2 AND SWAP4 DUP3 ADD SWAP4 SWAP1 SWAP4 MSTORE PUSH1 0x2 DUP3 ADD SLOAD SWAP1 SWAP3 AND SWAP4 DUP3 ADD SWAP4 SWAP1 SWAP4 MSTORE SWAP1 DUP3 ADD SLOAD PUSH1 0x60 DUP3 ADD MSTORE PUSH1 0x4 DUP3 ADD SLOAD PUSH1 0x80 DUP3 ADD MSTORE PUSH1 0x5 DUP3 ADD SLOAD PUSH1 0xA0 DUP3 ADD MSTORE PUSH1 0x6 SWAP1 SWAP2 ADD SLOAD PUSH1 0xFF AND ISZERO ISZERO PUSH1 0xC0 DUP3 ADD MSTORE SWAP1 JUMP JUMPDEST PUSH1 0x40 DUP1 MLOAD DUP3 MLOAD PUSH1 0x1 PUSH1 0x1 PUSH1 0xA0 SHL SUB SWAP1 DUP2 AND DUP3 MSTORE PUSH1 0x20 DUP1 DUP6 ADD MLOAD DUP3 AND SWAP1 DUP4 ADD MSTORE DUP4 DUP4 ADD MLOAD AND SWAP2 DUP2 ADD SWAP2 SWAP1 SWAP2 MSTORE PUSH1 0x60 DUP1 DUP4 ADD MLOAD SWAP1 DUP3 ADD MSTORE PUSH1 0x80 DUP1 DUP4 ADD MLOAD SWAP1 DUP3 ADD MSTORE PUSH1 0xA0 DUP1 DUP4 ADD MLOAD SWAP1 DUP3 ADD MSTORE PUSH1 0xC0 SWAP2 DUP3 ADD MLOAD ISZERO ISZERO SWAP2 DUP2 ADD SWAP2 SWAP1 SWAP2 MSTORE PUSH1 0xE0 ADD PUSH2 0x129 JUMP JUMPDEST CALLVALUE DUP1 ISZERO PUSH2 0x417 JUMPI PUSH1 0x0 DUP1 REVERT JUMPDEST POP PUSH2 0x247 PUSH2 0x426 CALLDATASIZE PUSH1 0x4 PUSH2 0x11F2 JUMP JUMPDEST PUSH2 0x61F JUMP JUMPDEST CALLVALUE DUP1 ISZERO PUSH2 0x437 JUMPI PUSH1 0x0 DUP1 REVERT JUMPDEST POP PUSH2 0x174 PUSH2 0x446 CALLDATASIZE PUSH1 0x4 PUSH2 0x11D0 JUMP JUMPDEST PUSH2 0xAA3 JUMP JUMPDEST CALLVALUE DUP1 ISZERO PUSH2 0x457 JUMPI PUSH1 0x0 DUP1 REVERT JUMPDEST POP PUSH2 0x174 PUSH2 0xB34 JUMP JUMPDEST PUSH1 0x60 PUSH1 0x4 DUP1 SLOAD DUP1 PUSH1 0x20 MUL PUSH1 0x20 ADD PUSH1 0x40 MLOAD SWAP1 DUP2 ADD PUSH1 0x40 MSTORE DUP1 SWAP3 SWAP2 SWAP1 DUP2 DUP2 MSTORE PUSH1 0x20 ADD DUP3 DUP1 SLOAD DUP1 ISZERO PUSH2 0x4AE JUMPI PUSH1 0x20 MUL DUP3 ADD SWAP2 SWAP1 PUSH1 0x0 MSTORE PUSH1 0x20 PUSH1 0x0 KECCAK256 SWAP1 JUMPDEST DUP2 SLOAD DUP2 MSTORE PUSH1 0x20 ADD SWAP1 PUSH1 0x1 ADD SWAP1 DUP1 DUP4 GT PUSH2 0x49A JUMPI JUMPDEST POP POP POP POP POP SWAP1 POP SWAP1 JUMP JUMPDEST PUSH1 0x0 DUP2 DUP2 MSTORE PUSH1 0x3 PUSH1 0x20 MSTORE PUSH1 0x40 SWAP1 KECCAK256 PUSH1 0x6 DUP2 ADD SLOAD PUSH1 0xFF AND PUSH2 0x50C JUMPI PUSH1 0x40 MLOAD PUSH3 0x461BCD PUSH1 0xE5 SHL DUP2 MSTORE PUSH1 0x20 PUSH1 0x4 DUP3 ADD MSTORE PUSH1 0xA PUSH1 0x24 DUP3 ADD MSTORE PUSH10 0x4E6F7420616374697665 PUSH1 0xB0 SHL PUSH1 0x44 DUP3 ADD MSTORE PUSH1 0x64 ADD JUMPDEST PUSH1 0x40 MLOAD DUP1 SWAP2 SUB SWAP1 REVERT JUMPDEST DUP1 SLOAD PUSH1 0x1 PUSH1 0x1 PUSH1 0xA0 SHL SUB AND CALLER EQ DUP1 PUSH2 0x52E JUMPI POP PUSH1 0x0 SLOAD PUSH1 0x1 PUSH1 0x1 PUSH1 0xA0 SHL SUB AND CALLER EQ JUMPDEST PUSH2 0x569 JUMPI PUSH1 0x40 MLOAD PUSH3 0x461BCD PUSH1 0xE5 SHL DUP2 MSTORE PUSH1 0x20 PUSH1 0x4 DUP3 ADD MSTORE PUSH1 0xC PUSH1 0x24 DUP3 ADD MSTORE PUSH12 0x155B985D5D1A1BDC9A5E9959 PUSH1 0xA2 SHL PUSH1 0x44 DUP3 ADD MSTORE PUSH1 0x64 ADD PUSH2 0x503 JUMP JUMPDEST PUSH1 0x0 DUP3 DUP2 MSTORE PUSH1 0x5 PUSH1 0x20 MSTORE PUSH1 0x40 SWAP1 KECCAK256 SLOAD PUSH2 0x582 DUP4 DUP3 PUSH2 0xE3D JUMP JUMPDEST PUSH1 0x40 MLOAD DUP4 SWAP1 PUSH32 0x3BA88DBD17F56B4D283DC25A121073C946C9052C9829A3C4147DCC1841CE068E SWAP1 PUSH1 0x0 SWAP1 LOG2 POP POP POP JUMP JUMPDEST PUSH1 0x4 DUP2 DUP2 SLOAD DUP2 LT PUSH2 0x5C2 JUMPI PUSH1 0x0 DUP1 REVERT JUMPDEST PUSH1 0x0 SWAP2 DUP3 MSTORE PUSH1 0x20 SWAP1 SWAP2 KECCAK256 ADD SLOAD SWAP1 POP DUP2 JUMP JUMPDEST PUSH1 0x0 SLOAD PUSH1 0x1 PUSH1 0x1 PUSH1 0xA0 SHL SUB AND CALLER EQ PUSH2 0x5FD JUMPI PUSH1 0x40 MLOAD PUSH3 0x461BCD PUSH1 0xE5 SHL DUP2 MSTORE PUSH1 0x4 ADD PUSH2 0x503 SWAP1 PUSH2 0x1251 JUMP JUMPDEST PUSH1 0x1 DUP1 SLOAD PUSH1 0x1 PUSH1 0x1 PUSH1 0xA0 SHL SUB NOT AND PUSH1 0x1 PUSH1 0x1 PUSH1 0xA0 SHL SUB SWAP3 SWAP1 SWAP3 AND SWAP2 SWAP1 SWAP2 OR SWAP1 SSTORE JUMP JUMPDEST PUSH1 0x0 DUP1 SLOAD PUSH1 0x1 PUSH1 0x1 PUSH1 0xA0 SHL SUB AND CALLER EQ PUSH2 0x64A JUMPI PUSH1 0x40 MLOAD PUSH3 0x461BCD PUSH1 0xE5 SHL DUP2 MSTORE PUSH1 0x4 ADD PUSH2 0x503 SWAP1 PUSH2 0x1251 JUMP JUMPDEST PUSH1 0x1 PUSH1 0x1 PUSH1 0xA0 SHL SUB DUP8 AND PUSH2 0x68D JUMPI PUSH1 0x40 MLOAD PUSH3 0x461BCD PUSH1 0xE5 SHL DUP2 MSTORE PUSH1 0x20 PUSH1 0x4 DUP3 ADD MSTORE PUSH1 0xA PUSH1 0x24 DUP3 ADD MSTORE PUSH10 0x16995C9BC81859D95B9D PUSH1 0xB2 SHL PUSH1 0x44 DUP3 ADD MSTORE PUSH1 0x64 ADD PUSH2 0x503 JUMP JUMPDEST PUSH1 0x1 PUSH1 0x1 PUSH1 0xA0 SHL SUB DUP7 AND PUSH2 0x6CF JUMPI PUSH1 0x40 MLOAD PUSH3 0x461BCD PUSH1 0xE5 SHL DUP2 MSTORE PUSH1 0x20 PUSH1 0x4 DUP3 ADD MSTORE PUSH1 0x9 PUSH1 0x24 DUP3 ADD MSTORE PUSH9 0x2D32B937903AB9B2B9 PUSH1 0xB9 SHL PUSH1 0x44 DUP3 ADD MSTORE PUSH1 0x64 ADD PUSH2 0x503 JUMP JUMPDEST PUSH1 0x1 PUSH1 0x1 PUSH1 0xA0 SHL SUB DUP6 AND PUSH2 0x712 JUMPI PUSH1 0x40 MLOAD PUSH3 0x461BCD PUSH1 0xE5 SHL DUP2 MSTORE PUSH1 0x20 PUSH1 0x4 DUP3 ADD MSTORE PUSH1 0xA PUSH1 0x24 DUP3 ADD MSTORE PUSH10 0x16995C9BC8185CDCD95D PUSH1 0xB2 SHL PUSH1 0x44 DUP3 ADD MSTORE PUSH1 0x64 ADD PUSH2 0x503 JUMP JUMPDEST PUSH1 0x0 DUP5 GT PUSH2 0x753 JUMPI PUSH1 0x40 MLOAD PUSH3 0x461BCD PUSH1 0xE5 SHL DUP2 MSTORE PUSH1 0x20 PUSH1 0x4 DUP3 ADD MSTORE PUSH1 0xE PUSH1 0x24 DUP3 ADD MSTORE PUSH14 0x16995C9BC81D1A1C995CDA1BDB19 PUSH1 0x92 SHL PUSH1 0x44 DUP3 ADD MSTORE PUSH1 0x64 ADD PUSH2 0x503 JUMP JUMPDEST PUSH1 0x0 DUP3 GT DUP1 ISZERO PUSH2 0x766 JUMPI POP PUSH3 0x278D00 DUP3 GT ISZERO JUMPDEST PUSH2 0x7A1 JUMPI PUSH1 0x40 MLOAD PUSH3 0x461BCD PUSH1 0xE5 SHL DUP2 MSTORE PUSH1 0x20 PUSH1 0x4 DUP3 ADD MSTORE PUSH1 0xC PUSH1 0x24 DUP3 ADD MSTORE PUSH12 0x2130B210323AB930BA34B7B7 PUSH1 0xA1 SHL PUSH1 0x44 DUP3 ADD MSTORE PUSH1 0x64 ADD PUSH2 0x503 JUMP JUMPDEST PUSH1 0x0 DUP4 GT PUSH2 0x7EA JUMPI PUSH1 0x40 MLOAD PUSH3 0x461BCD PUSH1 0xE5 SHL DUP2 MSTORE PUSH1 0x20 PUSH1 0x4 DUP3 ADD MSTORE PUSH1 0x16 PUSH1 0x24 DUP3 ADD MSTORE PUSH22 0x16995C9BC818DBDB1B185D195C985B08185B5BDD5B9D PUSH1 0x52 SHL PUSH1 0x44 DUP3 ADD MSTORE PUSH1 0x64 ADD PUSH2 0x503 JUMP JUMPDEST PUSH1 0x40 MLOAD PUSH4 0x6EB1769F PUSH1 0xE1 SHL DUP2 MSTORE PUSH1 0x1 PUSH1 0x1 PUSH1 0xA0 SHL SUB DUP9 DUP2 AND PUSH1 0x4 DUP4 ADD MSTORE ADDRESS PUSH1 0x24 DUP4 ADD MSTORE DUP5 SWAP2 SWAP1 DUP8 AND SWAP1 PUSH4 0xDD62ED3E SWAP1 PUSH1 0x44 ADD PUSH1 0x20 PUSH1 0x40 MLOAD DUP1 DUP4 SUB DUP2 DUP7 GAS STATICCALL ISZERO DUP1 ISZERO PUSH2 0x839 JUMPI RETURNDATASIZE PUSH1 0x0 DUP1 RETURNDATACOPY RETURNDATASIZE PUSH1 0x0 REVERT JUMPDEST POP POP POP POP PUSH1 0x40 MLOAD RETURNDATASIZE PUSH1 0x1F NOT PUSH1 0x1F DUP3 ADD AND DUP3 ADD DUP1 PUSH1 0x40 MSTORE POP DUP2 ADD SWAP1 PUSH2 0x85D SWAP2 SWAP1 PUSH2 0x1274 JUMP JUMPDEST LT ISZERO PUSH2 0x8AB JUMPI PUSH1 0x40 MLOAD PUSH3 0x461BCD PUSH1 0xE5 SHL DUP2 MSTORE PUSH1 0x20 PUSH1 0x4 DUP3 ADD DUP2 SWAP1 MSTORE PUSH1 0x24 DUP3 ADD MSTORE PUSH32 0x496E73756666696369656E7420636F6C6C61746572616C20617070726F76616C PUSH1 0x44 DUP3 ADD MSTORE PUSH1 0x64 ADD PUSH2 0x503 JUMP JUMPDEST PUSH1 0x2 DUP1 SLOAD SWAP1 PUSH1 0x0 PUSH2 0x8BB DUP4 PUSH2 0x12A3 JUMP JUMPDEST SWAP1 SWAP2 SSTORE POP SWAP1 POP PUSH1 0x0 PUSH2 0x8CD DUP4 TIMESTAMP PUSH2 0x12BC JUMP JUMPDEST SWAP1 POP PUSH1 0x40 MLOAD DUP1 PUSH1 0xE0 ADD PUSH1 0x40 MSTORE DUP1 DUP10 PUSH1 0x1 PUSH1 0x1 PUSH1 0xA0 SHL SUB AND DUP2 MSTORE PUSH1 0x20 ADD DUP9 PUSH1 0x1 PUSH1 0x1 PUSH1 0xA0 SHL SUB AND DUP2 MSTORE PUSH1 0x20 ADD DUP8 PUSH1 0x1 PUSH1 0x1 PUSH1 0xA0 SHL SUB AND DUP2 MSTORE PUSH1 0x20 ADD DUP7 DUP2 MSTORE PUSH1 0x20 ADD DUP6 DUP2 MSTORE PUSH1 0x20 ADD DUP3 DUP2 MSTORE PUSH1 0x20 ADD PUSH1 0x1 ISZERO ISZERO DUP2 MSTORE POP PUSH1 0x3 PUSH1 0x0 DUP5 DUP2 MSTORE PUSH1 0x20 ADD SWAP1 DUP2 MSTORE PUSH1 0x20 ADD PUSH1 0x0 KECCAK256 PUSH1 0x0 DUP3 ADD MLOAD DUP2 PUSH1 0x0 ADD PUSH1 0x0 PUSH2 0x100 EXP DUP2 SLOAD DUP2 PUSH1 0x1 PUSH1 0x1 PUSH1 0xA0 SHL SUB MUL NOT AND SWAP1 DUP4 PUSH1 0x1 PUSH1 0x1 PUSH1 0xA0 SHL SUB AND MUL OR SWAP1 SSTORE POP PUSH1 0x20 DUP3 ADD MLOAD DUP2 PUSH1 0x1 ADD PUSH1 0x0 PUSH2 0x100 EXP DUP2 SLOAD DUP2 PUSH1 0x1 PUSH1 0x1 PUSH1 0xA0 SHL SUB MUL NOT AND SWAP1 DUP4 PUSH1 0x1 PUSH1 0x1 PUSH1 0xA0 SHL SUB AND MUL OR SWAP1 SSTORE POP PUSH1 0x40 DUP3 ADD MLOAD DUP2 PUSH1 0x2 ADD PUSH1 0x0 PUSH2 0x100 EXP DUP2 SLOAD DUP2 PUSH1 0x1 PUSH1 0x1 PUSH1 0xA0 SHL SUB MUL NOT AND SWAP1 DUP4 PUSH1 0x1 PUSH1 0x1 PUSH1 0xA0 SHL SUB AND MUL OR SWAP1 SSTORE POP PUSH1 0x60 DUP3 ADD MLOAD DUP2 PUSH1 0x3 ADD SSTORE PUSH1 0x80 DUP3 ADD MLOAD DUP2 PUSH1 0x4 ADD SSTORE PUSH1 0xA0 DUP3 ADD MLOAD DUP2 PUSH1 0x5 ADD SSTORE PUSH1 0xC0 DUP3 ADD MLOAD DUP2 PUSH1 0x6 ADD PUSH1 0x0 PUSH2 0x100 EXP DUP2 SLOAD DUP2 PUSH1 0xFF MUL NOT AND SWAP1 DUP4 ISZERO ISZERO MUL OR SWAP1 SSTORE POP SWAP1 POP POP PUSH1 0x4 DUP1 SLOAD SWAP1 POP PUSH1 0x5 PUSH1 0x0 DUP5 DUP2 MSTORE PUSH1 0x20 ADD SWAP1 DUP2 MSTORE PUSH1 0x20 ADD PUSH1 0x0 KECCAK256 DUP2 SWAP1 SSTORE POP PUSH1 0x4 DUP3 SWAP1 DUP1 PUSH1 0x1 DUP2 SLOAD ADD DUP1 DUP3 SSTORE DUP1 SWAP2 POP POP PUSH1 0x1 SWAP1 SUB SWAP1 PUSH1 0x0 MSTORE PUSH1 0x20 PUSH1 0x0 KECCAK256 ADD PUSH1 0x0 SWAP1 SWAP2 SWAP1 SWAP2 SWAP1 SWAP2 POP SSTORE DUP7 PUSH1 0x1 PUSH1 0x1 PUSH1 0xA0 SHL SUB AND DUP9 PUSH1 0x1 PUSH1 0x1 PUSH1 0xA0 SHL SUB AND DUP4 PUSH32 0x41310595B97F2FF5ACE61E59E0B13B7ADEF66393293E864C9FE7DF475D6ECB33 DUP9 DUP6 PUSH1 0x40 MLOAD PUSH2 0xA90 SWAP3 SWAP2 SWAP1 SWAP2 DUP3 MSTORE PUSH1 0x20 DUP3 ADD MSTORE PUSH1 0x40 ADD SWAP1 JUMP JUMPDEST PUSH1 0x40 MLOAD DUP1 SWAP2 SUB SWAP1 LOG4 POP SWAP7 SWAP6 POP POP POP POP POP POP JUMP JUMPDEST PUSH1 0x0 SLOAD PUSH1 0x1 PUSH1 0x1 PUSH1 0xA0 SHL SUB AND CALLER EQ PUSH2 0xACD JUMPI PUSH1 0x40 MLOAD PUSH3 0x461BCD PUSH1 0xE5 SHL DUP2 MSTORE PUSH1 0x4 ADD PUSH2 0x503 SWAP1 PUSH2 0x1251 JUMP JUMPDEST PUSH1 0x1 PUSH1 0x1 PUSH1 0xA0 SHL SUB DUP2 AND PUSH2 0xB12 JUMPI PUSH1 0x40 MLOAD PUSH3 0x461BCD PUSH1 0xE5 SHL DUP2 MSTORE PUSH1 0x20 PUSH1 0x4 DUP3 ADD MSTORE PUSH1 0xC PUSH1 0x24 DUP3 ADD MSTORE PUSH12 0x5A65726F2061646472657373 PUSH1 0xA0 SHL PUSH1 0x44 DUP3 ADD MSTORE PUSH1 0x64 ADD PUSH2 0x503 JUMP JUMPDEST PUSH1 0x0 DUP1 SLOAD PUSH1 0x1 PUSH1 0x1 PUSH1 0xA0 SHL SUB NOT AND PUSH1 0x1 PUSH1 0x1 PUSH1 0xA0 SHL SUB SWAP3 SWAP1 SWAP3 AND SWAP2 SWAP1 SWAP2 OR SWAP1 SSTORE JUMP JUMPDEST PUSH1 0x1 SLOAD PUSH1 0x1 PUSH1 0x1 PUSH1 0xA0 SHL SUB AND CALLER EQ DUP1 PUSH2 0xB57 JUMPI POP PUSH1 0x0 SLOAD PUSH1 0x1 PUSH1 0x1 PUSH1 0xA0 SHL SUB AND CALLER EQ JUMPDEST PUSH2 0xB94 JUMPI PUSH1 0x40 MLOAD PUSH3 0x461BCD PUSH1 0xE5 SHL DUP2 MSTORE PUSH1 0x20 PUSH1 0x4 DUP3 ADD MSTORE PUSH1 0xE PUSH1 0x24 DUP3 ADD MSTORE PUSH14 0x139BDD08185D5D1A1BDC9A5E9959 PUSH1 0x92 SHL PUSH1 0x44 DUP3 ADD MSTORE PUSH1 0x64 ADD PUSH2 0x503 JUMP JUMPDEST PUSH1 0x4 SLOAD PUSH1 0x0 SWAP1 DUP2 SWAP1 DUP2 SWAP1 JUMPDEST DUP1 ISZERO PUSH2 0xDF6 JUMPI DUP1 PUSH2 0xBAF DUP2 PUSH2 0x12D5 JUMP JUMPDEST SWAP2 POP POP PUSH1 0x0 PUSH1 0x4 DUP3 DUP2 SLOAD DUP2 LT PUSH2 0xBC7 JUMPI PUSH2 0xBC7 PUSH2 0x12EC JUMP JUMPDEST SWAP1 PUSH1 0x0 MSTORE PUSH1 0x20 PUSH1 0x0 KECCAK256 ADD SLOAD SWAP1 POP PUSH1 0x0 PUSH1 0x3 PUSH1 0x0 DUP4 DUP2 MSTORE PUSH1 0x20 ADD SWAP1 DUP2 MSTORE PUSH1 0x20 ADD PUSH1 0x0 KECCAK256 SWAP1 POP DUP1 PUSH1 0x5 ADD SLOAD TIMESTAMP LT PUSH2 0xC40 JUMPI PUSH2 0xC00 DUP3 DUP5 PUSH2 0xE3D JUMP JUMPDEST DUP4 PUSH2 0xC0A DUP2 PUSH2 0x12A3 JUMP JUMPDEST PUSH1 0x40 MLOAD SWAP1 SWAP6 POP DUP4 SWAP2 POP PUSH32 0x3BA88DBD17F56B4D283DC25A121073C946C9052C9829A3C4147DCC1841CE068E SWAP1 PUSH1 0x0 SWAP1 LOG2 POP POP PUSH2 0xB9F JUMP JUMPDEST PUSH1 0x1 DUP2 ADD SLOAD PUSH1 0x40 MLOAD PUSH4 0x2FE4A15F PUSH1 0xE2 SHL DUP2 MSTORE PUSH1 0x1 PUSH1 0x1 PUSH1 0xA0 SHL SUB SWAP1 SWAP2 AND PUSH1 0x4 DUP3 ADD MSTORE PUSH20 0x6AE43D3271FF6888E7FC43FD7321A503FF738951 SWAP1 PUSH4 0xBF92857C SWAP1 PUSH1 0x24 ADD PUSH1 0xC0 PUSH1 0x40 MLOAD DUP1 DUP4 SUB DUP2 DUP7 GAS STATICCALL SWAP3 POP POP POP DUP1 ISZERO PUSH2 0xCBA JUMPI POP PUSH1 0x40 DUP1 MLOAD PUSH1 0x1F RETURNDATASIZE SWAP1 DUP2 ADD PUSH1 0x1F NOT AND DUP3 ADD SWAP1 SWAP3 MSTORE PUSH2 0xCB7 SWAP2 DUP2 ADD SWAP1 PUSH2 0x1302 JUMP JUMPDEST PUSH1 0x1 JUMPDEST PUSH2 0xCFF JUMPI PUSH1 0x1 DUP2 ADD SLOAD PUSH1 0x40 MLOAD PUSH1 0x1 PUSH1 0x1 PUSH1 0xA0 SHL SUB SWAP1 SWAP2 AND SWAP1 DUP4 SWAP1 PUSH32 0xE306BBD5B3C22C5207151EEBF7DD82799C317A6C68BE14202DDE29F8BEC9338C SWAP1 PUSH1 0x0 SWAP1 LOG3 PUSH2 0xDEF JUMP JUMPDEST DUP12 PUSH2 0xD09 DUP2 PUSH2 0x12A3 JUMP JUMPDEST SWAP13 POP POP PUSH1 0x0 NOT DUP2 EQ DUP1 PUSH2 0xD1A JUMPI POP DUP1 ISZERO JUMPDEST ISZERO PUSH2 0xD2C JUMPI POP POP POP POP POP POP POP POP PUSH2 0xB9F JUMP JUMPDEST DUP7 PUSH1 0x3 ADD SLOAD DUP2 LT ISZERO PUSH2 0xDE8 JUMPI PUSH1 0x0 PUSH2 0xD43 DUP9 PUSH2 0xF01 JUMP JUMPDEST SWAP1 POP DUP1 ISZERO PUSH2 0xDA2 JUMPI DUP12 PUSH2 0xD55 DUP2 PUSH2 0x12A3 JUMP JUMPDEST PUSH1 0x1 DUP11 ADD SLOAD PUSH1 0x40 MLOAD DUP6 DUP2 MSTORE SWAP2 SWAP15 POP PUSH1 0x1 PUSH1 0x1 PUSH1 0xA0 SHL SUB AND SWAP2 POP DUP11 SWAP1 PUSH32 0xE28026915AF2D467E2E22DE48FD06F32FC2DFEEF76BADC0DAC877F8D87754450 SWAP1 PUSH1 0x20 ADD PUSH1 0x40 MLOAD DUP1 SWAP2 SUB SWAP1 LOG3 PUSH2 0xDE6 JUMP JUMPDEST PUSH2 0xDAC DUP10 DUP12 PUSH2 0xE3D JUMP JUMPDEST DUP11 PUSH2 0xDB6 DUP2 PUSH2 0x12A3 JUMP JUMPDEST PUSH1 0x40 MLOAD SWAP1 SWAP13 POP DUP11 SWAP2 POP PUSH32 0x3BA88DBD17F56B4D283DC25A121073C946C9052C9829A3C4147DCC1841CE068E SWAP1 PUSH1 0x0 SWAP1 LOG2 JUMPDEST POP JUMPDEST POP POP POP POP POP POP JUMPDEST POP POP PUSH2 0xB9F JUMP JUMPDEST PUSH1 0x40 DUP1 MLOAD DUP6 DUP2 MSTORE PUSH1 0x20 DUP2 ADD DUP6 SWAP1 MSTORE SWAP1 DUP2 ADD DUP4 SWAP1 MSTORE PUSH32 0x188DFFC590872DC919B0E448791F95E29EBD499B88D4318FC474DFC17AAC6E3E SWAP1 PUSH1 0x60 ADD PUSH1 0x40 MLOAD DUP1 SWAP2 SUB SWAP1 LOG1 POP POP POP POP JUMP JUMPDEST PUSH1 0x0 DUP3 DUP2 MSTORE PUSH1 0x3 PUSH1 0x20 MSTORE PUSH1 0x40 DUP2 KECCAK256 PUSH1 0x6 ADD DUP1 SLOAD PUSH1 0xFF NOT AND SWAP1 SSTORE PUSH1 0x4 SLOAD PUSH2 0xE65 SWAP1 PUSH1 0x1 SWAP1 PUSH2 0x134C JUMP JUMPDEST SWAP1 POP DUP1 DUP3 EQ PUSH2 0xEC4 JUMPI PUSH1 0x0 PUSH1 0x4 DUP3 DUP2 SLOAD DUP2 LT PUSH2 0xE83 JUMPI PUSH2 0xE83 PUSH2 0x12EC JUMP JUMPDEST SWAP1 PUSH1 0x0 MSTORE PUSH1 0x20 PUSH1 0x0 KECCAK256 ADD SLOAD SWAP1 POP DUP1 PUSH1 0x4 DUP5 DUP2 SLOAD DUP2 LT PUSH2 0xEA4 JUMPI PUSH2 0xEA4 PUSH2 0x12EC JUMP JUMPDEST PUSH1 0x0 SWAP2 DUP3 MSTORE PUSH1 0x20 DUP1 DUP4 KECCAK256 SWAP1 SWAP2 ADD SWAP3 SWAP1 SWAP3 SSTORE SWAP2 DUP3 MSTORE PUSH1 0x5 SWAP1 MSTORE PUSH1 0x40 SWAP1 KECCAK256 DUP3 SWAP1 SSTORE JUMPDEST PUSH1 0x4 DUP1 SLOAD DUP1 PUSH2 0xED5 JUMPI PUSH2 0xED5 PUSH2 0x135F JUMP JUMPDEST PUSH1 0x0 DUP3 DUP2 MSTORE PUSH1 0x20 DUP1 DUP3 KECCAK256 DUP4 ADD PUSH1 0x0 NOT SWAP1 DUP2 ADD DUP4 SWAP1 SSTORE SWAP1 SWAP3 ADD SWAP1 SWAP3 SSTORE SWAP4 DUP2 MSTORE PUSH1 0x5 SWAP1 SWAP4 MSTORE POP POP PUSH1 0x40 DUP2 KECCAK256 SSTORE JUMP JUMPDEST PUSH1 0x2 DUP2 ADD SLOAD PUSH1 0x4 DUP1 DUP4 ADD SLOAD DUP4 SLOAD PUSH1 0x40 MLOAD PUSH4 0x6EB1769F PUSH1 0xE1 SHL DUP2 MSTORE PUSH1 0x1 PUSH1 0x1 PUSH1 0xA0 SHL SUB SWAP2 DUP3 AND SWAP4 DUP2 ADD SWAP4 SWAP1 SWAP4 MSTORE ADDRESS PUSH1 0x24 DUP5 ADD MSTORE PUSH1 0x0 SWAP4 AND SWAP2 DUP3 SWAP1 PUSH4 0xDD62ED3E SWAP1 PUSH1 0x44 ADD PUSH1 0x20 PUSH1 0x40 MLOAD DUP1 DUP4 SUB DUP2 DUP7 GAS STATICCALL ISZERO DUP1 ISZERO PUSH2 0xF60 JUMPI RETURNDATASIZE PUSH1 0x0 DUP1 RETURNDATACOPY RETURNDATASIZE PUSH1 0x0 REVERT JUMPDEST POP POP POP POP PUSH1 0x40 MLOAD RETURNDATASIZE PUSH1 0x1F NOT PUSH1 0x1F DUP3 ADD AND DUP3 ADD DUP1 PUSH1 0x40 MSTORE POP DUP2 ADD SWAP1 PUSH2 0xF84 SWAP2 SWAP1 PUSH2 0x1274 JUMP JUMPDEST LT ISZERO PUSH2 0xF93 JUMPI POP PUSH1 0x0 SWAP3 SWAP2 POP POP JUMP JUMPDEST DUP3 SLOAD PUSH1 0x4 DUP1 DUP6 ADD SLOAD PUSH1 0x40 MLOAD PUSH4 0x23B872DD PUSH1 0xE0 SHL DUP2 MSTORE PUSH1 0x1 PUSH1 0x1 PUSH1 0xA0 SHL SUB SWAP4 DUP5 AND SWAP3 DUP2 ADD SWAP3 SWAP1 SWAP3 MSTORE ADDRESS PUSH1 0x24 DUP4 ADD MSTORE PUSH1 0x44 DUP3 ADD MSTORE SWAP1 DUP3 AND SWAP1 PUSH4 0x23B872DD SWAP1 PUSH1 0x64 ADD PUSH1 0x20 PUSH1 0x40 MLOAD DUP1 DUP4 SUB DUP2 PUSH1 0x0 DUP8 GAS CALL SWAP3 POP POP POP DUP1 ISZERO PUSH2 0x100D JUMPI POP PUSH1 0x40 DUP1 MLOAD PUSH1 0x1F RETURNDATASIZE SWAP1 DUP2 ADD PUSH1 0x1F NOT AND DUP3 ADD SWAP1 SWAP3 MSTORE PUSH2 0x100A SWAP2 DUP2 ADD SWAP1 PUSH2 0x1375 JUMP JUMPDEST PUSH1 0x1 JUMPDEST PUSH2 0x101A JUMPI POP PUSH1 0x0 SWAP3 SWAP2 POP POP JUMP JUMPDEST DUP1 PUSH2 0x1029 JUMPI POP PUSH1 0x0 SWAP4 SWAP3 POP POP POP JUMP JUMPDEST POP PUSH1 0x4 DUP4 DUP2 ADD SLOAD PUSH1 0x40 MLOAD PUSH4 0x95EA7B3 PUSH1 0xE0 SHL DUP2 MSTORE PUSH20 0x6AE43D3271FF6888E7FC43FD7321A503FF738951 SWAP3 DUP2 ADD SWAP3 SWAP1 SWAP3 MSTORE PUSH1 0x24 DUP3 ADD MSTORE PUSH1 0x1 PUSH1 0x1 PUSH1 0xA0 SHL SUB DUP3 AND SWAP1 PUSH4 0x95EA7B3 SWAP1 PUSH1 0x44 ADD PUSH1 0x20 PUSH1 0x40 MLOAD DUP1 DUP4 SUB DUP2 PUSH1 0x0 DUP8 GAS CALL ISZERO DUP1 ISZERO PUSH2 0x1091 JUMPI RETURNDATASIZE PUSH1 0x0 DUP1 RETURNDATACOPY RETURNDATASIZE PUSH1 0x0 REVERT JUMPDEST POP POP POP POP PUSH1 0x40 MLOAD RETURNDATASIZE PUSH1 0x1F NOT PUSH1 0x1F DUP3 ADD AND DUP3 ADD DUP1 PUSH1 0x40 MSTORE POP DUP2 ADD SWAP1 PUSH2 0x10B5 SWAP2 SWAP1 PUSH2 0x1375 JUMP JUMPDEST POP PUSH1 0x2 DUP4 ADD SLOAD PUSH1 0x4 DUP1 DUP6 ADD SLOAD PUSH1 0x1 DUP7 ADD SLOAD PUSH1 0x40 MLOAD PUSH4 0x617BA037 PUSH1 0xE0 SHL DUP2 MSTORE PUSH1 0x1 PUSH1 0x1 PUSH1 0xA0 SHL SUB SWAP5 DUP6 AND SWAP4 DUP2 ADD SWAP4 SWAP1 SWAP4 MSTORE PUSH1 0x24 DUP4 ADD SWAP2 SWAP1 SWAP2 MSTORE SWAP2 SWAP1 SWAP2 AND PUSH1 0x44 DUP3 ADD MSTORE PUSH1 0x0 PUSH1 0x64 DUP3 ADD MSTORE PUSH20 0x6AE43D3271FF6888E7FC43FD7321A503FF738951 SWAP1 PUSH4 0x617BA037 SWAP1 PUSH1 0x84 ADD PUSH1 0x0 PUSH1 0x40 MLOAD DUP1 DUP4 SUB DUP2 PUSH1 0x0 DUP8 DUP1 EXTCODESIZE ISZERO DUP1 ISZERO PUSH2 0x1136 JUMPI PUSH1 0x0 DUP1 REVERT JUMPDEST POP GAS CALL ISZERO DUP1 ISZERO PUSH2 0x114A JUMPI RETURNDATASIZE PUSH1 0x0 DUP1 RETURNDATACOPY RETURNDATASIZE PUSH1 0x0 REVERT JUMPDEST POP PUSH1 0x1 SWAP7 SWAP6 POP POP POP POP POP POP JUMP JUMPDEST PUSH1 0x20 DUP1 DUP3 MSTORE DUP3 MLOAD DUP3 DUP3 ADD DUP2 SWAP1 MSTORE PUSH1 0x0 SWAP2 SWAP1 DUP5 DUP3 ADD SWAP1 PUSH1 0x40 DUP6 ADD SWAP1 DUP5 JUMPDEST DUP2 DUP2 LT ISZERO PUSH2 0x118F JUMPI DUP4 MLOAD DUP4 MSTORE SWAP3 DUP5 ADD SWAP3 SWAP2 DUP5 ADD SWAP2 PUSH1 0x1 ADD PUSH2 0x1173 JUMP JUMPDEST POP SWAP1 SWAP7 SWAP6 POP POP POP POP POP POP JUMP JUMPDEST PUSH1 0x0 PUSH1 0x20 DUP3 DUP5 SUB SLT ISZERO PUSH2 0x11AD JUMPI PUSH1 0x0 DUP1 REVERT JUMPDEST POP CALLDATALOAD SWAP2 SWAP1 POP JUMP JUMPDEST DUP1 CALLDATALOAD PUSH1 0x1 PUSH1 0x1 PUSH1 0xA0 SHL SUB DUP2 AND DUP2 EQ PUSH2 0x11CB JUMPI PUSH1 0x0 DUP1 REVERT JUMPDEST SWAP2 SWAP1 POP JUMP JUMPDEST PUSH1 0x0 PUSH1 0x20 DUP3 DUP5 SUB SLT ISZERO PUSH2 0x11E2 JUMPI PUSH1 0x0 DUP1 REVERT JUMPDEST PUSH2 0x11EB DUP3 PUSH2 0x11B4 JUMP JUMPDEST SWAP4 SWAP3 POP POP POP JUMP JUMPDEST PUSH1 0x0 DUP1 PUSH1 0x0 DUP1 PUSH1 0x0 DUP1 PUSH1 0xC0 DUP8 DUP10 SUB SLT ISZERO PUSH2 0x120B JUMPI PUSH1 0x0 DUP1 REVERT JUMPDEST PUSH2 0x1214 DUP8 PUSH2 0x11B4 JUMP JUMPDEST SWAP6 POP PUSH2 0x1222 PUSH1 0x20 DUP9 ADD PUSH2 0x11B4 JUMP JUMPDEST SWAP5 POP PUSH2 0x1230 PUSH1 0x40 DUP9 ADD PUSH2 0x11B4 JUMP JUMPDEST SWAP4 POP PUSH1 0x60 DUP8 ADD CALLDATALOAD SWAP3 POP PUSH1 0x80 DUP8 ADD CALLDATALOAD SWAP2 POP PUSH1 0xA0 DUP8 ADD CALLDATALOAD SWAP1 POP SWAP3 SWAP6 POP SWAP3 SWAP6 POP SWAP3 SWAP6 JUMP JUMPDEST PUSH1 0x20 DUP1 DUP3 MSTORE PUSH1 0x9 SWAP1 DUP3 ADD MSTORE PUSH9 0x2737BA1037BBB732B9 PUSH1 0xB9 SHL PUSH1 0x40 DUP3 ADD MSTORE PUSH1 0x60 ADD SWAP1 JUMP JUMPDEST PUSH1 0x0 PUSH1 0x20 DUP3 DUP5 SUB SLT ISZERO PUSH2 0x1286 JUMPI PUSH1 0x0 DUP1 REVERT JUMPDEST POP MLOAD SWAP2 SWAP1 POP JUMP JUMPDEST PUSH4 0x4E487B71 PUSH1 0xE0 SHL PUSH1 0x0 MSTORE PUSH1 0x11 PUSH1 0x4 MSTORE PUSH1 0x24 PUSH1 0x0 REVERT JUMPDEST PUSH1 0x0 PUSH1 0x1 DUP3 ADD PUSH2 0x12B5 JUMPI PUSH2 0x12B5 PUSH2 0x128D JUMP JUMPDEST POP PUSH1 0x1 ADD SWAP1 JUMP JUMPDEST DUP1 DUP3 ADD DUP1 DUP3 GT ISZERO PUSH2 0x12CF JUMPI PUSH2 0x12CF PUSH2 0x128D JUMP JUMPDEST SWAP3 SWAP2 POP POP JUMP JUMPDEST PUSH1 0x0 DUP2 PUSH2 0x12E4 JUMPI PUSH2 0x12E4 PUSH2 0x128D JUMP JUMPDEST POP PUSH1 0x0 NOT ADD SWAP1 JUMP JUMPDEST PUSH4 0x4E487B71 PUSH1 0xE0 SHL PUSH1 0x0 MSTORE PUSH1 0x32 PUSH1 0x4 MSTORE PUSH1 0x24 PUSH1 0x0 REVERT JUMPDEST PUSH1 0x0 DUP1 PUSH1 0x0 DUP1 PUSH1 0x0 DUP1 PUSH1 0xC0 DUP8 DUP10 SUB SLT ISZERO PUSH2 0x131B JUMPI PUSH1 0x0 DUP1 REVERT JUMPDEST DUP7 MLOAD SWAP6 POP PUSH1 0x20 DUP8 ADD MLOAD SWAP5 POP PUSH1 0x40 DUP8 ADD MLOAD SWAP4 POP PUSH1 0x60 DUP8 ADD MLOAD SWAP3 POP PUSH1 0x80 DUP8 ADD MLOAD SWAP2 POP PUSH1 0xA0 DUP8 ADD MLOAD SWAP1 POP SWAP3 SWAP6 POP SWAP3 SWAP6 POP SWAP3 SWAP6 JUMP JUMPDEST DUP2 DUP2 SUB DUP2 DUP2 GT ISZERO PUSH2 0x12CF JUMPI PUSH2 0x12CF PUSH2 0x128D JUMP JUMPDEST PUSH4 0x4E487B71 PUSH1 0xE0 SHL PUSH1 0x0 MSTORE PUSH1 0x31 PUSH1 0x4 MSTORE PUSH1 0x24 PUSH1 0x0 REVERT JUMPDEST PUSH1 0x0 PUSH1 0x20 DUP3 DUP5 SUB SLT ISZERO PUSH2 0x1387 JUMPI PUSH1 0x0 DUP1 REVERT JUMPDEST DUP2 MLOAD DUP1 ISZERO ISZERO DUP2 EQ PUSH2 0x11EB JUMPI PUSH1 0x0 DUP1 REVERT INVALID LOG2 PUSH5 0x6970667358 0x22 SLT KECCAK256 SMOD SWAP5 SDIV 0x4F CALLDATALOAD REVERT BYTE DUP8 BALANCE SWAP5 DUP7 CODECOPY 0xC6 STOP 0xBF AND EXP 0xD4 0xBD 0xBF 0x24 DUP4 POP 0xAD CALLVALUE 0x23 SWAP4 LT 0x4B 0xC3 LOG1 ADDMOD PUSH5 0x736F6C6343 STOP ADDMOD XOR STOP CALLER "},"methodIdentifiers":{"AAVE_POOL()":"08a01675","activeIds(uint256)":"3698b861","activeSubscriptionCount()":"b16abdd4","cancelSubscription(uint256)":"21235083","getActiveIds()":"11e40a8d","getSubscription(uint256)":"dc311dd3","nextId()":"61b8ce8c","owner()":"8da5cb5b","reactiveNetworkSender()":"884f0075","register(address,address,address,uint256,uint256,uint256)":"f1e1c92b","runCycle()":"f4dd8c36","subscriptions(uint256)":"2d5bbf60","transferOwnership(address)":"f2fde38b","updateReactiveNetworkSender(address)":"38679761"}}}}}