{"abi":[{"type":"constructor","inputs":[{"name":"_owner","type":"address","internalType":"address"},{"name":"_callbackSender","type":"address","internalType":"address"},{"name":"_lendingPool","type":"address","internalType":"address"},{"name":"_protocolDataProvider","type":"address","internalType":"address"},{"name":"_addressesProvider","type":"address","internalType":"address"}],"stateMutability":"payable"},{"type":"receive","stateMutability":"payable"},{"type":"function","name":"_checkAndProtectConfig","inputs":[{"name":"configId","type":"uint256","internalType":"uint256"}],"outputs":[{"name":"","type":"bool","internalType":"bool"}],"stateMutability":"nonpayable"},{"type":"function","name":"_performCollateralProtection","inputs":[{"name":"configId","type":"uint256","internalType":"uint256"}],"outputs":[{"name":"","type":"uint256","internalType":"uint256"}],"stateMutability":"nonpayable"},{"type":"function","name":"_performDebtRepayment","inputs":[{"name":"configId","type":"uint256","internalType":"uint256"}],"outputs":[{"name":"","type":"uint256","internalType":"uint256"}],"stateMutability":"nonpayable"},{"type":"function","name":"addressesProvider","inputs":[],"outputs":[{"name":"","type":"address","internalType":"address"}],"stateMutability":"view"},{"type":"function","name":"cancelProtectionConfig","inputs":[{"name":"configId","type":"uint256","internalType":"uint256"}],"outputs":[],"stateMutability":"nonpayable"},{"type":"function","name":"checkAndProtectPositions","inputs":[{"name":"","type":"address","internalType":"address"}],"outputs":[],"stateMutability":"nonpayable"},{"type":"function","name":"coverDebt","inputs":[],"outputs":[],"stateMutability":"nonpayable"},{"type":"function","name":"createProtectionConfig","inputs":[{"name":"_protectedUser","type":"address","internalType":"address"},{"name":"_protectionType","type":"uint8","internalType":"enum AaveProtectionCallback.ProtectionType"},{"name":"_healthFactorThreshold","type":"uint256","internalType":"uint256"},{"name":"_targetHealthFactor","type":"uint256","internalType":"uint256"},{"name":"_collateralAsset","type":"address","internalType":"address"},{"name":"_debtAsset","type":"address","internalType":"address"},{"name":"_preferDebtRepayment","type":"bool","internalType":"bool"}],"outputs":[{"name":"","type":"uint256","internalType":"uint256"}],"stateMutability":"nonpayable"},{"type":"function","name":"getActiveConfigs","inputs":[],"outputs":[{"name":"","type":"uint256[]","internalType":"uint256[]"}],"stateMutability":"view"},{"type":"function","name":"getAllConfigs","inputs":[],"outputs":[{"name":"","type":"uint256[]","internalType":"uint256[]"}],"stateMutability":"view"},{"type":"function","name":"getAssetPrice","inputs":[{"name":"asset","type":"address","internalType":"address"}],"outputs":[{"name":"","type":"uint256","internalType":"uint256"}],"stateMutability":"view"},{"type":"function","name":"getAssetsPrices","inputs":[{"name":"assets","type":"address[]","internalType":"address[]"}],"outputs":[{"name":"","type":"uint256[]","internalType":"uint256[]"}],"stateMutability":"view"},{"type":"function","name":"getCurrentHealthFactor","inputs":[{"name":"user","type":"address","internalType":"address"}],"outputs":[{"name":"","type":"uint256","internalType":"uint256"}],"stateMutability":"view"},{"type":"function","name":"getUserProtection","inputs":[{"name":"user","type":"address","internalType":"address"}],"outputs":[{"name":"isActive","type":"bool","internalType":"bool"},{"name":"protectionType","type":"uint8","internalType":"enum AaveProtectionCallback.ProtectionType"},{"name":"healthFactorThreshold","type":"uint256","internalType":"uint256"},{"name":"targetHealthFactor","type":"uint256","internalType":"uint256"},{"name":"collateralAsset","type":"address","internalType":"address"},{"name":"debtAsset","type":"address","internalType":"address"},{"name":"preferDebtRepayment","type":"bool","internalType":"bool"}],"stateMutability":"view"},{"type":"function","name":"lendingPool","inputs":[],"outputs":[{"name":"","type":"address","internalType":"address"}],"stateMutability":"view"},{"type":"function","name":"nextConfigId","inputs":[],"outputs":[{"name":"","type":"uint256","internalType":"uint256"}],"stateMutability":"view"},{"type":"function","name":"owner","inputs":[],"outputs":[{"name":"","type":"address","internalType":"address"}],"stateMutability":"view"},{"type":"function","name":"pauseProtectionConfig","inputs":[{"name":"configId","type":"uint256","internalType":"uint256"}],"outputs":[],"stateMutability":"nonpayable"},{"type":"function","name":"pay","inputs":[{"name":"amount","type":"uint256","internalType":"uint256"}],"outputs":[],"stateMutability":"nonpayable"},{"type":"function","name":"protectionConfigs","inputs":[{"name":"","type":"uint256","internalType":"uint256"}],"outputs":[{"name":"id","type":"uint256","internalType":"uint256"},{"name":"protectedUser","type":"address","internalType":"address"},{"name":"protectionType","type":"uint8","internalType":"enum AaveProtectionCallback.ProtectionType"},{"name":"healthFactorThreshold","type":"uint256","internalType":"uint256"},{"name":"targetHealthFactor","type":"uint256","internalType":"uint256"},{"name":"collateralAsset","type":"address","internalType":"address"},{"name":"debtAsset","type":"address","internalType":"address"},{"name":"preferDebtRepayment","type":"bool","internalType":"bool"},{"name":"status","type":"uint8","internalType":"enum AaveProtectionCallback.ProtectionStatus"},{"name":"createdAt","type":"uint256","internalType":"uint256"},{"name":"lastExecutedAt","type":"uint256","internalType":"uint256"},{"name":"executionCount","type":"uint8","internalType":"uint8"},{"name":"consecutiveFailures","type":"uint8","internalType":"uint8"},{"name":"lastExecutionAttempt","type":"uint256","internalType":"uint256"}],"stateMutability":"view"},{"type":"function","name":"protocolDataProvider","inputs":[],"outputs":[{"name":"","type":"address","internalType":"address"}],"stateMutability":"view"},{"type":"function","name":"rescueAllERC20","inputs":[{"name":"token","type":"address","internalType":"address"}],"outputs":[],"stateMutability":"nonpayable"},{"type":"function","name":"rescueAllETH","inputs":[],"outputs":[],"stateMutability":"nonpayable"},{"type":"function","name":"rescueERC20","inputs":[{"name":"token","type":"address","internalType":"address"},{"name":"amount","type":"uint256","internalType":"uint256"}],"outputs":[],"stateMutability":"nonpayable"},{"type":"function","name":"rescueETH","inputs":[{"name":"amount","type":"uint256","internalType":"uint256"}],"outputs":[],"stateMutability":"nonpayable"},{"type":"function","name":"resumeProtectionConfig","inputs":[{"name":"configId","type":"uint256","internalType":"uint256"}],"outputs":[],"stateMutability":"nonpayable"},{"type":"event","name":"ERC20Rescued","inputs":[{"name":"token","type":"address","indexed":true,"internalType":"address"},{"name":"to","type":"address","indexed":true,"internalType":"address"},{"name":"amount","type":"uint256","indexed":false,"internalType":"uint256"}],"anonymous":false},{"type":"event","name":"ETHRescued","inputs":[{"name":"to","type":"address","indexed":true,"internalType":"address"},{"name":"amount","type":"uint256","indexed":false,"internalType":"uint256"}],"anonymous":false},{"type":"event","name":"ProtectionCancelled","inputs":[{"name":"configId","type":"uint256","indexed":true,"internalType":"uint256"}],"anonymous":false},{"type":"event","name":"ProtectionCheckFailed","inputs":[{"name":"configId","type":"uint256","indexed":true,"internalType":"uint256"},{"name":"reason","type":"string","indexed":false,"internalType":"string"}],"anonymous":false},{"type":"event","name":"ProtectionConfigured","inputs":[{"name":"configId","type":"uint256","indexed":true,"internalType":"uint256"},{"name":"protectionType","type":"uint8","indexed":false,"internalType":"enum AaveProtectionCallback.ProtectionType"},{"name":"healthFactorThreshold","type":"uint256","indexed":false,"internalType":"uint256"},{"name":"targetHealthFactor","type":"uint256","indexed":false,"internalType":"uint256"},{"name":"collateralAsset","type":"address","indexed":false,"internalType":"address"},{"name":"debtAsset","type":"address","indexed":false,"internalType":"address"}],"anonymous":false},{"type":"event","name":"ProtectionCycleCompleted","inputs":[{"name":"timestamp","type":"uint256","indexed":false,"internalType":"uint256"},{"name":"totalConfigsChecked","type":"uint256","indexed":false,"internalType":"uint256"},{"name":"protectionsExecuted","type":"uint256","indexed":false,"internalType":"uint256"}],"anonymous":false},{"type":"event","name":"ProtectionExecuted","inputs":[{"name":"configId","type":"uint256","indexed":true,"internalType":"uint256"},{"name":"protectionMethod","type":"string","indexed":false,"internalType":"string"},{"name":"asset","type":"address","indexed":false,"internalType":"address"},{"name":"amount","type":"uint256","indexed":false,"internalType":"uint256"},{"name":"previousHealthFactor","type":"uint256","indexed":false,"internalType":"uint256"},{"name":"newHealthFactor","type":"uint256","indexed":false,"internalType":"uint256"}],"anonymous":false},{"type":"event","name":"ProtectionPaused","inputs":[{"name":"configId","type":"uint256","indexed":true,"internalType":"uint256"}],"anonymous":false},{"type":"event","name":"ProtectionResumed","inputs":[{"name":"configId","type":"uint256","indexed":true,"internalType":"uint256"}],"anonymous":false},{"type":"error","name":"HealthFactorAboveThreshold","inputs":[{"name":"configId","type":"uint256","internalType":"uint256"}]},{"type":"error","name":"InsufficientBalanceOrAllowance","inputs":[{"name":"configId","type":"uint256","internalType":"uint256"}]},{"type":"error","name":"ProtectionExecutionFailed","inputs":[{"name":"configId","type":"uint256","internalType":"uint256"}]},{"type":"error","name":"ProtectionNotActive","inputs":[{"name":"configId","type":"uint256","internalType":"uint256"}]},{"type":"error","name":"SafeERC20FailedOperation","inputs":[{"name":"token","type":"address","internalType":"address"}]}],"bytecode":{"object":"0x610100601f6136d338819003918201601f19168301916001600160401b0383118484101761018b5780849260a094604052833981010312610187576100438161019f565b906100506020820161019f565b9161005d6040830161019f565b90610076608061006f6060860161019f565b940161019f565b933360018060a01b0319600254161760025560018060a01b03168060018060a01b03195f5416175f555f52600160205260405f20600160ff1982541617905560805260a05260c05260e05260405161351f90816101b482396080518181816101a30152818161070d015281816107f801528181610aa201528181610e3601528181610f3701528181610f82015281816114060152611672015260a05181818161097101528181610a5f01528181611a4801528181611f3e0152818161231e015281816127e101528181612a3c01528181612ba701526131f4015260c05181818161156601528181611e6c01528181612c6a015261326c015260e0518181816108fe01528181610c6601526130f40152f35b5f80fd5b634e487b7160e01b5f52604160045260245ffd5b51906001600160a01b03821682036101875756fe6080604052600436101561001a575b3615610018575f80fd5b005b5f5f3560e01c806301e46ab61461179e5780632468857014611776578063304c45e61461170d57806330b27446146116ef57806335c80b25146116605780633a383d44146115955780633f843bce14611550578063529b6cb8146113ea57806363507956146113a15780637a90b9901461130f578063871450c0146111725780638cd4426d14610f665780638da5cb5b14610f2157806399d726c714610f035780639adbd26d14610e1b5780639d23d9f214610bfd5780639e252f0014610a8e578063a59a997314610a49578063b3596f0714610a25578063c290d691146109ec578063c509f0331461092d578063c72c4d10146108e8578063e6b9a60e146107dd578063f5b3ef7d146106f2578063fbb1430f146106cb5763fc13ee7614610143575061000e565b346106c85760e03660031901126106c85761015c6118e7565b600360243510156106c657608435916001600160a01b03831683036106c85760a435906001600160a01b03821682036106c85760c435928315158094036106c6576101d1337f00000000000000000000000000000000000000000000000000000000000000006001600160a01b031614612134565b6001600160a01b0316801561068857670de0b6b3a7640000604435111561064f5760443560643511156105fe576001600160a01b038516156105b9576001600160a01b0383161561057f5761022585613458565b1561053a5761023383613458565b156104f55760045493604051916101c0830183811067ffffffffffffffff8211176104e157604052858352602083015261026e6024356118c9565b6024356040830152604435606083015260643560808301526001600160a01b0386811660a0840152841660c083015260e08201526101008101829052426101208201526101408101829052610160810182905261018081018290526101a08101829052600354680100000000000000008110156104cd578060016102f59201600355611899565b9290926104b9575060209484937f0379034bb39e80198ee227a7ca9971c0907bea154e437c678febe3f73a241bb09360096101a08560a09651845560018401600180891b036001808a1b038d84015116166bffffffffffffffffffffffff891b8254161781556040820151610369816118c9565b610372816118c9565b815460ff9182168a1b828b1b199182161790925560608301516002870155608083015160038701558289015160048701805460018c1b5f19019283166bffffffffffffffffffffffff8d1b9182161790915560c085015160058901805460e088015115159095168d1b9190931693909116929092179092161781556101008201516103fc816118c9565b610405816118c9565b815460ff60a81b191660a89190911b60ff60a81b16179055610120810151600685015561014081015160078501556101608101516008808601805461018085015161ffff1990911660ff94909416939093179290911b61ff00169190911790550151910155610475600454612180565b600455604051916104876024356118c9565b60243583526044358884015260643560408401525f196001851b019081166060840152166080820152a2604051908152f35b634e487b7160e01b81526004819052602490fd5b634e487b7160e01b83526041600452602483fd5b634e487b7160e01b85526041600452602485fd5b60405162461bcd60e51b815260206004820152601860248201527f44656274206173736574206e6f7420737570706f7274656400000000000000006044820152606490fd5b60405162461bcd60e51b815260206004820152601e60248201527f436f6c6c61746572616c206173736574206e6f7420737570706f7274656400006044820152606490fd5b60405162461bcd60e51b8152602060048201526012602482015271125b9d985b1a59081919589d08185cdcd95d60721b6044820152606490fd5b60405162461bcd60e51b815260206004820152601860248201527f496e76616c696420636f6c6c61746572616c20617373657400000000000000006044820152606490fd5b60405162461bcd60e51b8152602060048201526024808201527f546172676574206d75737420626520686967686572207468616e2074687265736044820152631a1bdb1960e21b6064820152608490fd5b60405162461bcd60e51b81526020600482015260116024820152705468726573686f6c6420746f6f206c6f7760781b6044820152606490fd5b60405162461bcd60e51b815260206004820152601660248201527524b73b30b634b210383937ba32b1ba32b2103ab9b2b960511b6044820152606490fd5b505b80fd5b50346106c85760203660031901126106c85760206106ea6004356122e0565b604051908152f35b50346106c85760203660031901126106c85760043561073b337f00000000000000000000000000000000000000000000000000000000000000006001600160a01b031614612134565b610748600354821061227d565b600561075382611899565b5001805460ff8160a81c16610767816118c9565b6107a15760ff60a81b1916600160a81b1790557fee6234a3449f904f79d68953452c2b89497ebd146a8bc7ae5b0b4e8f3778a3718280a280f35b60405162461bcd60e51b8152602060048201526014602482015273436f6e666967206973206e6f742061637469766560601b6044820152606490fd5b50346106c85760203660031901126106c857600435610826337f00000000000000000000000000000000000000000000000000000000000000006001600160a01b031614612134565b610833600354821061227d565b600561083e82611899565b5001805460ff8160a81c16610852816118c9565b80159081156108d4575b50156108985760ff60a81b1916600160a91b1790557fcf54734705fd889f6c3dd58ec1a558452d5cd3a3c5ef048ee5b5d925418b90db8280a280f35b60405162461bcd60e51b815260206004820152601460248201527343616e6e6f742063616e63656c20636f6e66696760601b6044820152606490fd5b600191506108e1816118c9565b145f61085c565b50346106c857806003193601126106c8576040517f00000000000000000000000000000000000000000000000000000000000000006001600160a01b03168152602090f35b50346106c85760203660031901126106c8576109476118e7565b604051632fe4a15f60e21b81526001600160a01b0391821660048201529060c090829060249082907f0000000000000000000000000000000000000000000000000000000000000000165afa9081156109e157602092916109ac575b50604051908152f35b6109ce915060c03d60c0116109da575b6109c68183611976565b8101906119ac565b9450505050505f6109a3565b503d6109bc565b6040513d84823e3d90fd5b50346106c85760203660031901126106c8573381526001602052610a1660ff6040832054166121ec565b610a2260043533613020565b80f35b50346106c85760203660031901126106c85760206106ea610a446118e7565b6130de565b50346106c857806003193601126106c8576040517f00000000000000000000000000000000000000000000000000000000000000006001600160a01b03168152602090f35b50346106c85760203660031901126106c8577f00000000000000000000000000000000000000000000000000000000000000006001600160a01b0316600435610ad8338314612134565b801590610ae58215612231565b479115610bf75750805b8111610bb2578015610b7a578280808084865af1610b0b612fe1565b5015610b3f5760207fb3579861130e4da8bb7b87c54d2d139937f23bcd6e4ebed9e75d0f78ab1cc11891604051908152a280f35b60405162461bcd60e51b8152602060048201526013602482015272115512081d1c985b9cd9995c8819985a5b1959606a1b6044820152606490fd5b60405162461bcd60e51b815260206004820152601060248201526f4e6f2045544820746f2072657363756560801b6044820152606490fd5b60405162461bcd60e51b815260206004820152601860248201527f496e73756666696369656e74204554482062616c616e636500000000000000006044820152606490fd5b90610aef565b50346106c85760203660031901126106c85760043567ffffffffffffffff81116106c657366023820112156106c65780600401359067ffffffffffffffff8211610d9c573660248360051b83010111610d9c57604051631f94a27560e31b8152906020826004817f00000000000000000000000000000000000000000000000000000000000000006001600160a01b03165afa918215610e10578492610ddf575b50918391604051938492634e91ecf960e11b84528060248501602060048701525260246044850192019085905b808210610da4575050508290039082906001600160a01b03165afa9081156109e1578291610d06575b60405180610d0284826118fd565b0390f35b90503d8083833e610d178183611976565b810190602081830312610d9c5780519067ffffffffffffffff8211610da0570181601f82011215610d9c57805190610d4e8261218e565b93610d5c6040519586611976565b82855260208086019360051b8301019384116106c85750602001905b828210610d8c57505050610d02905f610cf4565b8151815260209182019101610d78565b8280fd5b8380fd5b939550909350919083356001600160a01b0381169190829003610ddb57602081600193829352019401920191869492869492610ccb565b8780fd5b610e0291925060203d602011610e09575b610dfa8183611976565b8101906122c1565b905f610c9e565b503d610df0565b6040513d86823e3d90fd5b50346106c85760203660031901126106c857600435610e64337f00000000000000000000000000000000000000000000000000000000000000006001600160a01b031614612134565b610e71600354821061227d565b6005610e7c82611899565b50018054600160ff8260a81c16610e92816118c9565b03610ec75760ff60a81b191690557f4f84709bd4231f3fd9f66fe6df31a6590e47b2dbb73bd6a1e74d0f3d35474b028280a280f35b60405162461bcd60e51b815260206004820152601460248201527310dbdb999a59c81a5cc81b9bdd081c185d5cd95960621b6044820152606490fd5b50346106c857806003193601126106c8576020600454604051908152f35b50346106c857806003193601126106c8576040517f00000000000000000000000000000000000000000000000000000000000000006001600160a01b03168152602090f35b50346106c85760403660031901126106c857610f806118e7565b7f00000000000000000000000000000000000000000000000000000000000000006001600160a01b03169060243590610fba338414612134565b811590610fc78215612231565b6040516370a0823160e01b81523060048201526001600160a01b0391909116929091602083602481875afa92831561116757869361112f575b50156111295750805b81116110e45780156110a9576040519063a9059cbb60e01b8552836004528060245260208560448180875af1600186511481161561108a575b826040521561107657816020917f8bbfbb5d7fcacf6fc74005cdede0635561638507f576c95f7f294c22141be2e59352a380f35b635274afe760e01b85526004839052602485fd5b60018115166110a057833b15153d151616611042565b823d87823e3d90fd5b60405162461bcd60e51b81526020600482015260136024820152724e6f20746f6b656e7320746f2072657363756560681b6044820152606490fd5b60405162461bcd60e51b815260206004820152601a60248201527f496e73756666696369656e7420746f6b656e2062616c616e63650000000000006044820152606490fd5b90611009565b9092506020813d60201161115f575b8161114b60209383611976565b8101031261115b5751915f611000565b5f80fd5b3d915061113e565b6040513d88823e3d90fd5b50346106c85760203660031901126106c85761118c6118e7565b5033815260016020526111a560ff6040832054166121ec565b8080805b6003548310156112d45760ff60056111c085611899565b50015460a81c166111d0816118c9565b6112cb576111dd90612180565b91604051630246885760e41b815281600482015260208160248188305af185918161128c575b5061126b5750806001915f5160206134ca5f395f51905f52608060405160208152602860208201527f556e6578706563746564206572726f7220647572696e672070726f74656374696040820152676f6e20636865636b60c01b6060820152a25b01916111a9565b611278575b600190611264565b90611284600191612180565b919050611270565b9091506020813d82116112c3575b816112a760209383611976565b810103126112bf576112b890611d9a565b905f611203565b8580fd5b3d915061129a565b91600190611264565b7fb2a1984478c1064cb30b6e5bd7410ed80e897a5a51f65a9c4a826d92ba5a349292506060916040519142835260208301526040820152a180f35b50346106c857806003193601126106c85780546040516326db15bb60e21b8152306004820152906001600160a01b0316602082602481845afa908115611396578391611360575b610a229250613020565b90506020823d60201161138e575b8161137b60209383611976565b8101031261115b57610a22915190611356565b3d915061136e565b6040513d85823e3d90fd5b50346106c857806003193601126106c8576003546113be816121a6565b915b8181106113d55760405180610d0285826118fd565b80806113e3600193866121d8565b52016113c0565b50346106c85760203660031901126106c8576114046118e7565b7f00000000000000000000000000000000000000000000000000000000000000006001600160a01b0316919061143b338414612134565b6040516370a0823160e01b81523060048201526001600160a01b039190911691602082602481865afa91821561154357819261150f575b506110e45780156110a9576040519063a9059cbb60e01b5f52836004528060245260205f60448180875af160015f51148116156114f0575b82604052156114dd57816020917f8bbfbb5d7fcacf6fc74005cdede0635561638507f576c95f7f294c22141be2e59352a3005b82635274afe760e01b5f5260045260245ffd5b600181151661150657833b15153d1516166114aa565b823d5f823e3d90fd5b9091506020813d60201161153b575b8161152b60209383611976565b8101031261115b5751905f611472565b3d915061151e565b50604051903d90823e3d90fd5b50346106c857806003193601126106c8576040517f00000000000000000000000000000000000000000000000000000000000000006001600160a01b03168152602090f35b50346106c857806003193601126106c85760035481805b82811061162157506115bd906121a6565b9180805b8381106115d65760405180610d0287826118fd565b60ff60056115e383611899565b50015460a81c166115f3816118c9565b15611601575b6001016115c1565b916116198184611613600194896121d8565b52612180565b9290506115f9565b60ff600561162e83611899565b50015460a81c1661163e816118c9565b1561164c575b6001016115ac565b90611658600191612180565b919050611644565b3461115b575f36600319011261115b577f00000000000000000000000000000000000000000000000000000000000000006001600160a01b03166116a5338214612134565b478015610b7a575f80808084865af16116bc612fe1565b5015610b3f5760207fb3579861130e4da8bb7b87c54d2d139937f23bcd6e4ebed9e75d0f78ab1cc11891604051908152a2005b3461115b57602036600319011261115b5760206106ea600435611e0d565b3461115b57602036600319011261115b5760e061173061172b6118e7565b611ce1565b946040949194939293519615158752611748816118c9565b6020870152604086015260608501526001600160a01b0390811660808501521660a0830152151560c0820152f35b3461115b57602036600319011261115b5760206117946004356119ff565b6040519015158152f35b3461115b57602036600319011261115b5760043560035481101561115b576117c86101c091611899565b50805460ff600183015492818460a01c16600282015460038301548460018060a01b03600486015416600586015490828260a81c1693600688015495600789015497600960088b01549a01549b60206040519e8f92835260018060a01b0316910152611833816118c9565b60408d015260608c015260808b015260a0808b01919091526001600160a01b03821660c08b01521c16151560e088015261186c816118c9565b61010087015261012086015261014085015281811661016085015260081c166101808301526101a0820152f35b6003548110156118b55760035f52600a60205f20910201905f90565b634e487b7160e01b5f52603260045260245ffd5b600311156118d357565b634e487b7160e01b5f52602160045260245ffd5b600435906001600160a01b038216820361115b57565b60206040818301928281528451809452019201905f5b8181106119205750505090565b8251845260209384019390920191600101611913565b1561193d57565b60405162461bcd60e51b815260206004820152601160248201527024b73a32b93730b610333ab731ba34b7b760791b6044820152606490fd5b90601f8019910116810190811067ffffffffffffffff82111761199857604052565b634e487b7160e01b5f52604160045260245ffd5b91908260c091031261115b5781519160208101519160408201519160608101519160a0608083015192015190565b60ff1660ff81146119eb5760010190565b634e487b7160e01b5f52601160045260245ffd5b611a0a303314611936565b611a1381611899565b506001810154604051632fe4a15f60e21b81526001600160a01b03808316600483015292939290919060c090839060249082907f0000000000000000000000000000000000000000000000000000000000000000165afa918215611cc9575f92611ca2575b506002840154821015611c9a576009840180548015159081611c85575b50611c7c5742905560ff5f9160a01c16611aae816118c9565b80611bd2575050611abf908261266f565b915b8215611af657600891504260078201550160ff611ae0818354166119da565b1660ff1982541617815561ff0019815416905590565b600560ff60088301611b26611b1083835460081c166119da565b825461ff00191660089190911b61ff0016178255565b5460081c161015611b3657505090565b600501805460ff60a81b1916600160a91b1790556040515f5160206134ca5f395f51905f5290608090837fcf54734705fd889f6c3dd58ec1a558452d5cd3a3c5ef048ee5b5d925418b90db5f80a260208152603060208201527f4175746f2d63616e63656c6c65643a206d617820636f6e73656375746976652060408201526f19985a5b1d5c995cc81c995858da195960821b6060820152a290565b611bdb816118c9565b60018103611bf5575050611bef90826128e4565b91611ac1565b90939190600290611c05816118c9565b14611c11575b50611ac1565b925060ff600582015460a01c165f14611c5157611c2e83836128e4565b928315611c3e575b505b5f611c0b565b611c4a9193508261266f565b915f611c36565b611c5b838361266f565b928315611c69575b50611c38565b611c75919350826128e4565b915f611c63565b50505050505f90565b9050601e81018091116119eb5742105f611a95565b505050505f90565b611cbc91925060c03d60c0116109da576109c68183611976565b945050505050905f611a78565b6040513d5f823e3d90fd5b919082039182116119eb57565b600354805b611cfc5750505f905f905f905f905f905f905f90565b5f1981018181116119eb57611d1090611899565b5060058101549060ff8260a81c16611d27816118c9565b1580611d81575b611d4357505080156119eb575f190180611ce6565b60018181015460028301546003840154600490940154929760ff60a093841c8116985091965093946001600160a01b039384169493811693921c1690565b5060018101546001600160a01b03858116911614611d2e565b5190811515820361115b57565b908161012091031261115b5780519160208201519160408101519160608201519160808101519160a08201519160c08101519160e082015164ffffffffff8116810361115b57610100611dfb919301611d9a565b90565b9081602091031261115b575190565b611e18303314611936565b611e2181611899565b50600581018054600190920180546040516328dd2d0160e01b81526001600160a01b0394851660048201819052918516602482018190529195939491939161012090829060449082907f0000000000000000000000000000000000000000000000000000000000000000165afa908115611cc9575f916120fc575b5015611c7c57611eab90612b6c565b9384611eb9575b5050505090565b6040516370a0823160e01b815260048101849052602081602481855afa8015611cc95786915f916120c7575b501061207257604051636eb1769f60e11b81526001600160a01b0384166004820152306024820152602081604481855afa8015611cc95786915f9161203d575b5010611ff95784611f3a916020943091612e41565b82547f000000000000000000000000000000000000000000000000000000000000000093608491611f7790879087906001600160a01b0316612ed3565b54915460405163573ade8160e01b81526001600160a01b0393841660048201526024810187905260026044820152908316606482015293849283915f91165af18015611cc957611fca575b808080611eb2565b611feb9060203d602011611ff2575b611fe38183611976565b810190611dfe565b505f611fc2565b503d611fd9565b606460405162461bcd60e51b815260206004820152602060248201527f496e73756666696369656e7420617070726f76656420646562742061737365746044820152fd5b9150506020813d60201161206a575b8161205960209383611976565b8101031261115b578590515f611f25565b3d915061204c565b60405162461bcd60e51b815260206004820152602760248201527f496e73756666696369656e7420757365722062616c616e636520666f722072656044820152661c185e5b595b9d60ca1b6064820152608490fd5b9150506020813d6020116120f4575b816120e360209383611976565b8101031261115b578590515f611ee5565b3d91506120d6565b61211e91506101203d811161212d575b6121168183611976565b810190611da7565b5050505050509150505f611e9c565b503d61210c565b1561213b57565b60405162461bcd60e51b815260206004820152601860248201527f4f6e6c79206f776e65722063616e2063616c6c207468697300000000000000006044820152606490fd5b5f1981146119eb5760010190565b67ffffffffffffffff81116119985760051b60200190565b906121b08261218e565b6121bd6040519182611976565b82815280926121ce601f199161218e565b0190602036910137565b80518210156118b55760209160051b010190565b156121f357565b60405162461bcd60e51b8152602060048201526016602482015275417574686f72697a65642073656e646572206f6e6c7960501b6044820152606490fd5b1561223857565b60405162461bcd60e51b815260206004820152601d60248201527f416d6f756e74206d7573742062652067726561746572207468616e20300000006044820152606490fd5b1561228457565b60405162461bcd60e51b815260206004820152601560248201527410dbdb999a59c8191bd95cc81b9bdd08195e1a5cdd605a1b6044820152606490fd5b9081602091031261115b57516001600160a01b038116810361115b5790565b6122eb303314611936565b6122f481611899565b50600181018054604051632fe4a15f60e21b81526001600160a01b039182166004820181905293947f000000000000000000000000000000000000000000000000000000000000000092831694929160c081602481895afa908115611cc9575f91612591575b501561258757612369906131ba565b9485612378575b505050505090565b6004019160018060a01b03835416916040516370a0823160e01b8152826004820152602081602481875afa8015611cc95788915f91612552575b50106124fc57604051636eb1769f60e11b81526001600160a01b0383166004820152306024820152602081604481875afa8015611cc95788915f916124c7575b501061248357612409876124199481943091612e41565b83546001600160a01b0316612ed3565b5490546001600160a01b039182169116823b1561115b5760845f9283604051958694859363617ba03760e01b8552600485015288602485015260448401528160648401525af18015611cc957612473575b80808080612370565b5f61247d91611976565b5f61246a565b606460405162461bcd60e51b815260206004820152602060248201527f496e73756666696369656e7420617070726f76656420636f6c6c61746572616c6044820152fd5b9150506020813d6020116124f4575b816124e360209383611976565b8101031261115b578790515f6123f2565b3d91506124d6565b60405162461bcd60e51b815260206004820152602860248201527f496e73756666696369656e7420757365722062616c616e636520666f7220636f6044820152671b1b185d195c985b60c21b6064820152608490fd5b9150506020813d60201161257f575b8161256e60209383611976565b8101031261115b578790515f6123b2565b3d9150612561565b5050505050505f90565b6125aa915060c03d60c0116109da576109c68183611976565b5050505090505f61235a565b5f9060033d116125c257565b905060045f803e5f5160e01c90565b5f60443d10611dfb576040513d600319016004823e8051913d602484011167ffffffffffffffff84111761263f578282019283519167ffffffffffffffff8311612637573d840160031901858401602001116126375750611dfb92910160200190611976565b949350505050565b92915050565b602060409281835280519182918282860152018484015e5f828201840152601f01601f1916010190565b60405163fbb1430f60e01b81526004810182905290916020826024815f305af15f92816128b0575b506127985750506126a66125b6565b6308c379a01461270e575b5f5160206134ca5f395f51905f52608060405160208152602b60208201527f436f6c6c61746572616c2070726f74656374696f6e206661696c65643a20556e60408201526a35b737bbb71032b93937b960a91b6060820152a25f90565b6127166125d1565b8061272157506126b1565b6127916020612785603e5f5160206134ca5f395f51905f52946040519384917f436f6c6c61746572616c2070726f74656374696f6e206661696c65643a200000828401528051918291018484015e81015f838201520301601f198101835282611976565b60405191829182612645565b0390a25f90565b816127a4575050505f90565b6127ad83611899565b506001810154604051632fe4a15f60e21b81526001600160a01b039182166004820152919391929060c090849060249082907f0000000000000000000000000000000000000000000000000000000000000000165afa908115611cc9577f9a3c1f530d04162bf90017397efe9a9311e694c35705e3794d59287a95b0e8fe9460e0945f93612889575b50600460018060a01b0391015416926040519360a08552601260a08601527110dbdb1b185d195c985b0811195c1bdcda5d60721b60c08601526020850152604084015260608301526080820152a2600190565b6128a391935060c03d60c0116109da576109c68183611976565b945050505050915f612836565b9092506020813d6020116128dc575b816128cc60209383611976565b8101031261115b5751915f612697565b3d91506128bf565b6040516318593a2360e11b81526004810182905290916020826024815f305af15f9281612b07575b506129f357505061291b6125b6565b6308c379a01461297c575b5f5160206134ca5f395f51905f52608060405160208152602460208201527f446562742072657061796d656e74206661696c65643a20556e6b6e6f776e2065604082015263393937b960e11b6060820152a25f90565b6129846125d1565b8061298f5750612926565b612791602061278560375f5160206134ca5f395f51905f52946040519384917f446562742072657061796d656e74206661696c65643a20000000000000000000828401528051918291018484015e81015f838201520301601f198101835282611976565b816129ff575050505f90565b612a0883611899565b506001810154604051632fe4a15f60e21b81526001600160a01b039182166004820152919391929060c090849060249082907f0000000000000000000000000000000000000000000000000000000000000000165afa908115611cc9577f9a3c1f530d04162bf90017397efe9a9311e694c35705e3794d59287a95b0e8fe9460e0945f93612ae0575b50600560018060a01b0391015416926040519360a08552600e60a08601526d1119589d0814995c185e5b595b9d60921b60c08601526020850152604084015260608301526080820152a2600190565b612afa91935060c03d60c0116109da576109c68183611976565b945050505050915f612a91565b9092506020813d602011612b33575b81612b2360209383611976565b8101031261115b5751915f61290c565b3d9150612b16565b818102929181159184041417156119eb57565b8115612b58570490565b634e487b7160e01b5f52601260045260245ffd5b612b7590611899565b506001810154604051632fe4a15f60e21b81526001600160a01b03918216600482018190529160c090829060249082907f0000000000000000000000000000000000000000000000000000000000000000165afa908115611cc9575f5f925f925f91612e16575b508315908115612e07575b50611c7c5761271091612bf991612b3b565b0461271081029080820461271014901517156119eb57612c2690655af3107a400060038601540490612b4e565b80821115611c9a576005909301546040516328dd2d0160e01b81526001600160a01b03918216600482018190529390911660248201529261012084806044810103817f00000000000000000000000000000000000000000000000000000000000000006001600160a01b03165afa938415611cc9575f94612ddd575b508315611c9a57612cb291611cd4565b612cbb826130de565b918215612d865760206004916040519283809263313ce56760e01b82525afa928315611cc95784915f94612d44575b5060ff91612cf791612b3b565b9216604d81116119eb578392612d1091600a0a90612b4e565b90808211612d2c575050905b808211612d27575090565b905090565b612d3e92612d3991612b3b565b612b4e565b90612d1c565b915092506020813d602011612d7e575b81612d6160209383611976565b8101031261115b575160ff8116810361115b5791839060ff612cea565b3d9150612d54565b60405162461bcd60e51b815260206004820152602960248201527f496e76616c696420646562742061737365742070726963652066726f6d2041616044820152687665206f7261636c6560b81b6064820152608490fd5b612df79194506101203d811161212d576121168183611976565b505050505050915050925f612ca2565b9050600386015411155f612be7565b92505050612e33915060c03d60c0116109da576109c68183611976565b93925050929092915f612bdc565b6040516323b872dd60e01b5f9081526001600160a01b039384166004529290931660245260449390935260209060648180865af19060015f5114821615612eb2575b6040525f60605215612e925750565b635274afe760e01b5f9081526001600160a01b0391909116600452602490fd5b906001811516612eca57823b15153d15161690612e83565b503d5f823e3d90fd5b916040519163095ea7b360e01b5f5260018060a01b031691826004528160245260205f60448180885af19060015f5114821615612fd2575b60405215612f1857505050565b60405163095ea7b360e01b5f52826004525f60245260205f60448180885af19060015f5114821615612fba575b60405215612f9c576040519163095ea7b360e01b5f5260045260245260205f60448180865af19060015f5114821615612f84575b60405215612e925750565b906001811516612eca57823b15153d15161690612f79565b635274afe760e01b5f9081526001600160a01b038416600452602490fd5b906001811516612eca57843b15153d15161690612f45565b90843b15153d15161690612f0b565b3d1561301b573d9067ffffffffffffffff82116119985760405191613010601f8201601f191660200184611976565b82523d5f602084013e565b606090565b908047106130a45780613031575050565b5f91829160405190613044602083611976565b83825260208201915f36843751926001600160a01b03165af1613065612fe1565b501561306d57565b60405162461bcd60e51b815260206004820152600f60248201526e151c985b9cd9995c8819985a5b1959608a1b6044820152606490fd5b60405162461bcd60e51b8152602060048201526012602482015271496e73756666696369656e742066756e647360701b6044820152606490fd5b604051631f94a27560e31b8152906020826004817f00000000000000000000000000000000000000000000000000000000000000006001600160a01b03165afa918215611cc9575f92613198575b5060405163b3596f0760e01b81526001600160a01b0391821660048201529160209183916024918391165afa908115611cc9575f91613169575090565b90506020813d602011613190575b8161318460209383611976565b8101031261115b575190565b3d9150613177565b60209192506131b390823d8411610e0957610dfa8183611976565b919061312c565b6131c390611899565b506001810154604051632fe4a15f60e21b81526001600160a01b039182166004820152919060c090839060249082907f0000000000000000000000000000000000000000000000000000000000000000165afa908115611cc9575f915f905f945f9161342d575b50811590811561341e575b50611c9a5760018060a01b036004830154169360405193633e15014160e01b85528560048601526101408560248160018060a01b037f0000000000000000000000000000000000000000000000000000000000000000165afa948515611cc9575f95613384575b5091655af3107a400060036127106132b86132c2958297612b3b565b0495015404612b3b565b049080821115611c9a576132d591611cd4565b61271081029080820461271014901517156119eb576132fd916132f791612b4e565b916130de565b801561332d57670de0b6b3a7640000820291808304670de0b6b3a764000014901517156119eb57611dfb91612b4e565b60405162461bcd60e51b815260206004820152602960248201527f496e76616c696420636f6c6c61746572616c2070726963652066726f6d2041616044820152687665206f7261636c6560b81b6064820152608490fd5b9192909450610140823d8211613416575b816133a36101409383611976565b8101031261115b57655af3107a400060036127106132b881968661340761012060406132c29a0151926133d860a08201611d9a565b506133e560c08201611d9a565b506133f260e08201611d9a565b506134006101008201611d9a565b5001611d9a565b5099959750955050505061329c565b3d9150613395565b9050600383015411155f613235565b929450505061344b915060c03d60c0116109da576109c68183611976565b91959392505f905061322a565b60405163b3596f0760e01b81526001600160a01b039091166004820152602081602481305afa5f9181613495575b5061349057505f90565b151590565b9091506020813d6020116134c1575b816134b160209383611976565b8101031261115b5751905f613486565b3d91506134a456fe3a74746b8dd1f74cee610c46f0d92f443c0f228bedde12b785fbaaeec12c6c07a26469706673582212207b12bd689d014156384e0e885453958c19d874891f2dcac2aefb4f056844209764736f6c634300081e0033","linkReferences":{}},"methodIdentifiers":{"_checkAndProtectConfig(uint256)":"24688570","_performCollateralProtection(uint256)":"fbb1430f","_performDebtRepayment(uint256)":"30b27446","addressesProvider()":"c72c4d10","cancelProtectionConfig(uint256)":"e6b9a60e","checkAndProtectPositions(address)":"871450c0","coverDebt()":"7a90b990","createProtectionConfig(address,uint8,uint256,uint256,address,address,bool)":"fc13ee76","getActiveConfigs()":"3a383d44","getAllConfigs()":"63507956","getAssetPrice(address)":"b3596f07","getAssetsPrices(address[])":"9d23d9f2","getCurrentHealthFactor(address)":"c509f033","getUserProtection(address)":"304c45e6","lendingPool()":"a59a9973","nextConfigId()":"99d726c7","owner()":"8da5cb5b","pauseProtectionConfig(uint256)":"f5b3ef7d","pay(uint256)":"c290d691","protectionConfigs(uint256)":"01e46ab6","protocolDataProvider()":"3f843bce","rescueAllERC20(address)":"529b6cb8","rescueAllETH()":"35c80b25","rescueERC20(address,uint256)":"8cd4426d","rescueETH(uint256)":"9e252f00","resumeProtectionConfig(uint256)":"9adbd26d"},"id":10}