{"abi":[{"type":"constructor","inputs":[{"name":"_owner","type":"address","internalType":"address"},{"name":"_protectionCallback","type":"address","internalType":"address"},{"name":"_cronTopic","type":"uint256","internalType":"uint256"},{"name":"_destinationChainId","type":"uint256","internalType":"uint256"}],"stateMutability":"payable"},{"type":"receive","stateMutability":"payable"},{"type":"function","name":"activeConfigCount","inputs":[],"outputs":[{"name":"","type":"uint256","internalType":"uint256"}],"stateMutability":"view"},{"type":"function","name":"configIds","inputs":[{"name":"","type":"uint256","internalType":"uint256"}],"outputs":[{"name":"","type":"uint256","internalType":"uint256"}],"stateMutability":"view"},{"type":"function","name":"coverDebt","inputs":[],"outputs":[],"stateMutability":"nonpayable"},{"type":"function","name":"cronSubscribed","inputs":[],"outputs":[{"name":"","type":"bool","internalType":"bool"}],"stateMutability":"view"},{"type":"function","name":"cronTopic","inputs":[],"outputs":[{"name":"","type":"uint256","internalType":"uint256"}],"stateMutability":"view"},{"type":"function","name":"destinationChainId","inputs":[],"outputs":[{"name":"","type":"uint256","internalType":"uint256"}],"stateMutability":"view"},{"type":"function","name":"getActiveConfigs","inputs":[],"outputs":[{"name":"","type":"uint256[]","internalType":"uint256[]"}],"stateMutability":"view"},{"type":"function","name":"getCronTopic","inputs":[],"outputs":[{"name":"","type":"uint256","internalType":"uint256"}],"stateMutability":"view"},{"type":"function","name":"getProtectionCallback","inputs":[],"outputs":[{"name":"","type":"address","internalType":"address"}],"stateMutability":"view"},{"type":"function","name":"isTracked","inputs":[{"name":"","type":"uint256","internalType":"uint256"}],"outputs":[{"name":"","type":"bool","internalType":"bool"}],"stateMutability":"view"},{"type":"function","name":"pause","inputs":[],"outputs":[],"stateMutability":"nonpayable"},{"type":"function","name":"pay","inputs":[{"name":"amount","type":"uint256","internalType":"uint256"}],"outputs":[],"stateMutability":"nonpayable"},{"type":"function","name":"persistConfigCancelled","inputs":[{"name":"","type":"address","internalType":"address"},{"name":"configId","type":"uint256","internalType":"uint256"}],"outputs":[],"stateMutability":"nonpayable"},{"type":"function","name":"persistConfigCreated","inputs":[{"name":"","type":"address","internalType":"address"},{"name":"configId","type":"uint256","internalType":"uint256"},{"name":"healthFactorThreshold","type":"uint256","internalType":"uint256"}],"outputs":[],"stateMutability":"nonpayable"},{"type":"function","name":"persistConfigExecuted","inputs":[{"name":"","type":"address","internalType":"address"},{"name":"configId","type":"uint256","internalType":"uint256"}],"outputs":[],"stateMutability":"nonpayable"},{"type":"function","name":"persistConfigPaused","inputs":[{"name":"","type":"address","internalType":"address"},{"name":"configId","type":"uint256","internalType":"uint256"}],"outputs":[],"stateMutability":"nonpayable"},{"type":"function","name":"persistConfigResumed","inputs":[{"name":"","type":"address","internalType":"address"},{"name":"configId","type":"uint256","internalType":"uint256"}],"outputs":[],"stateMutability":"nonpayable"},{"type":"function","name":"protectionCallback","inputs":[],"outputs":[{"name":"","type":"address","internalType":"address"}],"stateMutability":"view"},{"type":"function","name":"react","inputs":[{"name":"log","type":"tuple","internalType":"struct IReactive.LogRecord","components":[{"name":"chain_id","type":"uint256","internalType":"uint256"},{"name":"_contract","type":"address","internalType":"address"},{"name":"topic_0","type":"uint256","internalType":"uint256"},{"name":"topic_1","type":"uint256","internalType":"uint256"},{"name":"topic_2","type":"uint256","internalType":"uint256"},{"name":"topic_3","type":"uint256","internalType":"uint256"},{"name":"data","type":"bytes","internalType":"bytes"},{"name":"block_number","type":"uint256","internalType":"uint256"},{"name":"op_code","type":"uint256","internalType":"uint256"},{"name":"block_hash","type":"uint256","internalType":"uint256"},{"name":"tx_hash","type":"uint256","internalType":"uint256"},{"name":"log_index","type":"uint256","internalType":"uint256"}]}],"outputs":[],"stateMutability":"nonpayable"},{"type":"function","name":"rescueAllERC20","inputs":[{"name":"token","type":"address","internalType":"address"},{"name":"to","type":"address","internalType":"address"}],"outputs":[],"stateMutability":"nonpayable"},{"type":"function","name":"rescueERC20","inputs":[{"name":"token","type":"address","internalType":"address"},{"name":"to","type":"address","internalType":"address"},{"name":"amount","type":"uint256","internalType":"uint256"}],"outputs":[],"stateMutability":"nonpayable"},{"type":"function","name":"resume","inputs":[],"outputs":[],"stateMutability":"nonpayable"},{"type":"function","name":"setCronTopic","inputs":[{"name":"newCronTopic","type":"uint256","internalType":"uint256"}],"outputs":[],"stateMutability":"nonpayable"},{"type":"function","name":"subscribeToCron","inputs":[{"name":"","type":"address","internalType":"address"}],"outputs":[],"stateMutability":"nonpayable"},{"type":"function","name":"trackedConfigs","inputs":[{"name":"","type":"uint256","internalType":"uint256"}],"outputs":[{"name":"id","type":"uint256","internalType":"uint256"},{"name":"healthFactorThreshold","type":"uint256","internalType":"uint256"},{"name":"status","type":"uint8","internalType":"enum AaveProtectionReactive.ProtectionStatus"},{"name":"lastTriggeredAt","type":"uint256","internalType":"uint256"},{"name":"triggerCount","type":"uint8","internalType":"uint8"}],"stateMutability":"view"},{"type":"function","name":"unsubscribeFromCron","inputs":[{"name":"","type":"address","internalType":"address"}],"outputs":[],"stateMutability":"nonpayable"},{"type":"function","name":"withdrawAllETH","inputs":[],"outputs":[],"stateMutability":"nonpayable"},{"type":"function","name":"withdrawETH","inputs":[{"name":"amount","type":"uint256","internalType":"uint256"}],"outputs":[],"stateMutability":"nonpayable"},{"type":"event","name":"Callback","inputs":[{"name":"chain_id","type":"uint256","indexed":true,"internalType":"uint256"},{"name":"_contract","type":"address","indexed":true,"internalType":"address"},{"name":"gas_limit","type":"uint64","indexed":true,"internalType":"uint64"},{"name":"payload","type":"bytes","indexed":false,"internalType":"bytes"}],"anonymous":false},{"type":"event","name":"ConfigTracked","inputs":[{"name":"configId","type":"uint256","indexed":true,"internalType":"uint256"}],"anonymous":false},{"type":"event","name":"ConfigUntracked","inputs":[{"name":"configId","type":"uint256","indexed":true,"internalType":"uint256"}],"anonymous":false},{"type":"event","name":"CronSubscriptionChanged","inputs":[{"name":"subscribed","type":"bool","indexed":false,"internalType":"bool"},{"name":"topic","type":"uint256","indexed":false,"internalType":"uint256"}],"anonymous":false},{"type":"event","name":"CronTopicUpdated","inputs":[{"name":"oldTopic","type":"uint256","indexed":false,"internalType":"uint256"},{"name":"newTopic","type":"uint256","indexed":false,"internalType":"uint256"}],"anonymous":false},{"type":"event","name":"ProcessingError","inputs":[{"name":"reason","type":"string","indexed":false,"internalType":"string"},{"name":"configId","type":"uint256","indexed":false,"internalType":"uint256"}],"anonymous":false},{"type":"event","name":"ProtectionCheckTriggered","inputs":[{"name":"timestamp","type":"uint256","indexed":false,"internalType":"uint256"},{"name":"blockNumber","type":"uint256","indexed":false,"internalType":"uint256"}],"anonymous":false},{"type":"event","name":"ProtectionCycleCompleted","inputs":[{"name":"timestamp","type":"uint256","indexed":false,"internalType":"uint256"}],"anonymous":false},{"type":"error","name":"SafeERC20FailedOperation","inputs":[{"name":"token","type":"address","internalType":"address"}]}],"bytecode":{"object":"0x60c0806040525f906080816125fb803803809161001c8285610604565b8339810103126106005761002f8161063b565b9061003c6020820161063b565b604082015160609290920151600280545f80546001600160a01b031990811662ffffff9081178355808352600160208190527f82ea04094b91fdbcc6bc700815069948943553fb456ac308389bf83006127735805460ff199081169092179055903b1560ff166001600160a81b0319909416841763ffffff001794859055600380543384169316929092176001600160a01b0390991698909817905560a0859052600495909555608083905260058054909616909555600693909355909290919015610139575b604051611f8b908161065082396080518181816105ec01526111bc015260a05181818161119101528181611226015261175a0152f35b60081c6001600160a01b031690813b15610600576040516305a6aced60e41b815260048101919091526001600160a01b0390921660248301527f0379034bb39e80198ee227a7ca9971c0907bea154e437c678febe3f73a241bb060448301525f5160206125db5f395f51905f52606483018190526084830181905260a48301525f90829060c490829084905af180156105f5576105e2575b5060025460805160a05183926001600160a01b039182169260089190911c90911690813b1561059e5783916040519384926305a6aced60e41b8452600484015260248301527fcf54734705fd889f6c3dd58ec1a558452d5cd3a3c5ef048ee5b5d925418b90db60448301525f5160206125db5f395f51905f5260648301525f5160206125db5f395f51905f5260848301525f5160206125db5f395f51905f5260a4830152818360c482800301925af1801561057a576105cd575b5060025460805160a0516001600160a01b039081169260081c1690813b1561059e5783916040519384926305a6aced60e41b8452600484015260248301527f9a3c1f530d04162bf90017397efe9a9311e694c35705e3794d59287a95b0e8fe60448301525f5160206125db5f395f51905f5260648301525f5160206125db5f395f51905f5260848301525f5160206125db5f395f51905f5260a4830152818360c482800301925af1801561057a576105b8575b5060025460805160a0516001600160a01b039081169260081c1690813b1561059e5783916040519384926305a6aced60e41b8452600484015260248301527fee6234a3449f904f79d68953452c2b89497ebd146a8bc7ae5b0b4e8f3778a37160448301525f5160206125db5f395f51905f5260648301525f5160206125db5f395f51905f5260848301525f5160206125db5f395f51905f5260a4830152818360c482800301925af1801561057a576105a3575b5060025460805160a0516001600160a01b039081169260081c1690813b1561059e5783916040519384926305a6aced60e41b8452600484015260248301527f4f84709bd4231f3fd9f66fe6df31a6590e47b2dbb73bd6a1e74d0f3d35474b0260448301525f5160206125db5f395f51905f5260648301525f5160206125db5f395f51905f5260848301525f5160206125db5f395f51905f5260a4830152818360c482800301925af1801561057a57610589575b505060025460805160a0516001600160a01b039081169284929160089190911c16803b15610585576040519384926305a6aced60e41b8452600484015260248301527fb2a1984478c1064cb30b6e5bd7410ed80e897a5a51f65a9c4a826d92ba5a349260448301525f5160206125db5f395f51905f5260648301525f5160206125db5f395f51905f5260848301525f5160206125db5f395f51905f5260a4830152818360c482800301925af1801561057a57610562575b8080610103565b61056d828092610604565b610577578061055b565b80fd5b6040513d84823e3d90fd5b8280fd5b8161059391610604565b61057757805f6104a4565b505050fd5b816105ad91610604565b61057757805f6103f1565b816105c291610604565b61057757805f61033e565b816105d791610604565b61057757805f61028b565b6105ee91505f90610604565b5f5f6101d1565b6040513d5f823e3d90fd5b5f80fd5b601f909101601f19168101906001600160401b0382119082101761062757604052565b634e487b7160e01b5f52604160045260245ffd5b51906001600160a01b03821682036106005756fe6080604052600436101561001a575b3615610018575f80fd5b005b5f3560e01c8063046f7da2146115725780630d152c2c146110e35780630daa6bf9146110ad5780630ed99a83146110905780631194f9e914611061578063137ebc8214610f2b57806321c2555914610e6b5780633a383d4414610d275780633b0a42e214610b7057806358fa548b14610b385780637814ac7f146109e15780637a90b9901461095b5780638456cb59146107c65780638c5fdff9146107635780638d3c6e721461068857806390386bbf1461060f578063b0750611146105d5578063b2118a8d14610576578063c0d062c614610554578063c290d691146104e4578063c2f19ec1146104df578063c6380a221461035c578063ceb6b317146104df578063d2cd0cd8146103de578063dbb38c3614610379578063ec68c7241461035c578063f14210a6146102ce5763f57bd6db0361000e57346102aa5760403660031901126102aa5761016b6116ed565b5060243561017d62ffffff3314611917565b805f52600860205260ff60405f20541661019357005b805f52600760205260ff600260405f2001541660038110156102ba57156101f5575b805f526007602052600260405f2001600260ff198254161790557fc6c8c842ce15d0f5cb8cbd060959a43a2d388102917a33efadb57713796a53325f80a2005b610200600654611b8d565b8060065515806102ae575b156101b5576002546004549060081c6001600160a01b0316803b156102aa576040516317c0399b60e11b8152915f9183918290849082906102519085466004850161189d565b03925af1801561029f5761028f575b5060ff19600554166005555f516020611f165f395f51905f5260406004548151905f82526020820152a16101b5565b5f6102999161187b565b5f610260565b6040513d5f823e3d90fd5b5f80fd5b5060ff6005541661020b565b634e487b7160e01b5f52602160045260245ffd5b346102aa5760203660031901126102aa576004356102f760018060a01b036003541633146117cd565b478111610317575f80808061001894335af1610311611bb1565b50611bf0565b60405162461bcd60e51b815260206004820152601860248201527f496e73756666696369656e74204554482062616c616e636500000000000000006044820152606490fd5b346102aa575f3660031901126102aa576020600454604051908152f35b346102aa5760203660031901126102aa576004355f52600760205260405f208054600182015460ff6002840154169260ff600460038301549201541691604051938452602084015260038410156102ba5760a093604084015260608301526080820152f35b346102aa5760403660031901126102aa576103f76116ed565b6103ff611703565b9061041560018060a01b036003541633146117cd565b6104296001600160a01b0383161515611c32565b6040516370a0823160e01b81523060048201526001600160a01b039190911691602082602481865afa91821561029f575f926104ab575b5081156104705761001892611e80565b60405162461bcd60e51b81526020600482015260136024820152724e6f20746f6b656e7320746f2072657363756560681b6044820152606490fd5b9091506020813d6020116104d7575b816104c76020938361187b565b810103126102aa57519083610460565b3d91506104ba565b611745565b346102aa5760203660031901126102aa57335f52600160205260ff60405f205416156105165761001860043533611dc2565b60405162461bcd60e51b8152602060048201526016602482015275417574686f72697a65642073656e646572206f6e6c7960501b6044820152606490fd5b346102aa575f3660031901126102aa57602060ff600554166040519015158152f35b346102aa5760603660031901126102aa576100186105926116ed565b61059a611703565b6105af60018060a01b036003541633146117cd565b6105c36001600160a01b0382161515611c32565b604435916001600160a01b0316611e80565b346102aa575f3660031901126102aa5760206040517f00000000000000000000000000000000000000000000000000000000000000008152f35b346102aa575f3660031901126102aa5761063460018060a01b036003541633146117cd565b47801561064e575f80808061001894335af1610311611bb1565b60405162461bcd60e51b81526020600482015260126024820152714e6f2045544820746f20776974686472617760701b6044820152606490fd5b346102aa5760203660031901126102aa576106a16116ed565b506106b062ffffff3314611917565b60ff600554161580610753575b6106c357005b6002546004549060081c6001600160a01b0316803b156102aa576040516305a6aced60e41b8152915f9183918290849082906107049085466004850161189d565b03925af1801561029f57610743575b50600160ff1960055416176005555f516020611f165f395f51905f526040600454815190600182526020820152a1005b5f61074d9161187b565b80610713565b5060ff60035460a01c16156106bd565b346102aa5760403660031901126102aa5761077c6116ed565b5060243561078e62ffffff3314611917565b805f52600860205260ff60405f2054166107a457005b5f9081526007602052604081206003810191909155600401805460ff19169055005b346102aa575f3660031901126102aa576107e560ff6002541615611789565b60035460ff906107ff336001600160a01b038316146117cd565b60a01c166109255761080f611c7e565b5f5b815181146109105760025460081c6001600160a01b0316906108338184611837565b51516001600160a01b0360206108498487611837565b5101511692604061085a8487611837565b51015190606061086a8588611837565b51015194608061087a8689611837565b5101519360a061088a878a611837565b51015190833b156102aa576040516317c0399b60e11b815260048101919091526001600160a01b0392909216602483015260448201939093526064810195909552608485019290925260a48401525f90839060c490829084905af191821561029f576108fb92610900575b50611808565b610811565b5f61090a9161187b565b836108f5565b6003805460ff60a01b1916600160a01b179055005b60405162461bcd60e51b815260206004820152600e60248201526d105b1c9958591e481c185d5cd95960921b6044820152606490fd5b346102aa575f3660031901126102aa575f546040516326db15bb60e21b8152306004820152906001600160a01b0316602082602481845afa90811561029f575f916109ab575b6100189250611dc2565b90506020823d6020116109d9575b816109c66020938361187b565b810103126102aa576100189151906109a1565b3d91506109b9565b346102aa5760403660031901126102aa576109fa6116ed565b50602435610a0c62ffffff3314611917565b805f52600860205260ff60405f205416610a2257005b805f52600760205260ff600260405f2001541660038110156102ba57600114610a60575b5f908152600760205260409020600201805460ff19169055005b6006541580610b2b575b80610b1b575b610a88575b610a80600654611808565b600655610a46565b6002546004549060081c6001600160a01b0316803b156102aa576040516305a6aced60e41b8152915f918391829084908290610ac99085466004850161189d565b03925af1801561029f57610b0b575b50600160ff1960055416176005555f516020611f165f395f51905f526040600454815190600182526020820152a1610a75565b5f610b159161187b565b81610ad8565b5060ff60035460a01c1615610a70565b5060ff6005541615610a6a565b346102aa5760203660031901126102aa576004356009548110156102aa57610b61602091611719565b90549060031b1c604051908152f35b346102aa5760203660031901126102aa57600435610b9360ff6002541615611789565b60035490610bab336001600160a01b038416146117cd565b60045491828214610cf05760ff600554169081610ce1575b5015610cb35760025460081c6001600160a01b0316803b156102aa575f60405180926317c0399b60e11b8252818381610c018985466004850161189d565b03925af1801561029f57610ca3575b50600481905560025460081c6001600160a01b031691823b156102aa575f60405180946305a6aced60e41b8252818381610c4f8885466004850161189d565b03925af191821561029f577f92b65c78372fffa2d3e7ee77b5003598cfa2490dd340447de3a47d8a7ad55b0393604093610c93575b505b82519182526020820152a1005b5f610c9d9161187b565b84610c84565b5f610cad9161187b565b82610c10565b7f92b65c78372fffa2d3e7ee77b5003598cfa2490dd340447de3a47d8a7ad55b039181604092600455610c86565b60ff915060a01c161583610bc3565b60405162461bcd60e51b815260206004820152600f60248201526e53616d652063726f6e20746f70696360881b6044820152606490fd5b346102aa575f3660031901126102aa575f5f600954905b818110610e1e5750610d68610d5283611b99565b92610d60604051948561187b565b808452611b99565b602083019190601f19013683375f905f5b818110610dc4578385604051918291602083019060208452518091526040830191905f5b818110610dab575050500390f35b8251845285945060209384019390920191600101610d9d565b610dcd81611719565b90549060031b1c805f52600760205260ff600260405f2001541660038110156102ba5715610dff575b50600101610d79565b83610e1791610e116001949689611837565b52611808565b9290610df6565b610e2781611719565b90549060031b1c5f52600760205260ff600260405f2001541660038110156102ba5715610e57575b600101610d3e565b91610e63600191611808565b929050610e4f565b346102aa5760203660031901126102aa57610e846116ed565b50610e9362ffffff3314611917565b60ff60055416610e9f57005b6002546004549060081c6001600160a01b0316803b156102aa576040516317c0399b60e11b8152915f918391829084908290610ee09085466004850161189d565b03925af1801561029f57610f1b575b5060ff19600554166005555f516020611f165f395f51905f5260406004548151905f82526020820152a1005b5f610f259161187b565b80610eef565b346102aa5760403660031901126102aa57610f446116ed565b50602435610f5662ffffff3314611917565b805f52600860205260ff60405f205416610f6c57005b805f52600760205260ff600260405f2001541660038110156102ba5715610fab575b5f908152600760205260409020600201805460ff19166001179055005b610fb6600654611b8d565b806006551580611055575b15610f8e576002546004549060081c6001600160a01b0316803b156102aa576040516317c0399b60e11b8152915f9183918290849082906110079085466004850161189d565b03925af1801561029f57611045575b5060ff19600554166005555f516020611f165f395f51905f5260406004548151905f82526020820152a1610f8e565b5f61104f9161187b565b81611016565b5060ff60055416610fc1565b346102aa5760203660031901126102aa576004355f526008602052602060ff60405f2054166040519015158152f35b346102aa575f3660031901126102aa576020600654604051908152f35b346102aa5760603660031901126102aa576110c66116ed565b506110d562ffffff3314611917565b610018604435602435611959565b346102aa5760203660031901126102aa5760043567ffffffffffffffff81116102aa578036036101806003198201126102aa5760ff600254161561154357604482013560045481145f1461120f575050507f5ea0582922c95a6a210fba4bb41aae061e01b3220ff523ae7db10eb812ea930b60408051428152436020820152a1621e848060405163021c514360e61b60208201525f60248201526024815261118c60448261187b565b6040517f00000000000000000000000000000000000000000000000000000000000000006001600160a01b0316917f0000000000000000000000000000000000000000000000000000000000000000917f8dd725fa9d6cd150017ab9e60318d40616439424e2fade9c1c58854950917dfc91819061120a90826118ed565b0390a4005b6024830161121c816118d9565b6001600160a01b037f0000000000000000000000000000000000000000000000000000000000000000811692911682148061151a575b156112885750505050507f5c4fd753b3dd0cd163d2697dfab12d3c820afa11a9c5b678584da406dfebb0856020604051428152a1005b6001600160a01b039061129a906118d9565b16146112a257005b7f0379034bb39e80198ee227a7ca9971c0907bea154e437c678febe3f73a241bb081036113a0575060c482013590602219018112156102aa57810190600482013567ffffffffffffffff81116102aa57602483019080360382136102aa5760a0908401849003126102aa573560ff8116036102aa5760448261132a6084621e84809501611f01565b5061133760a48201611f01565b50606460405193630daa6bf960e01b60208601525f6024860152013582840152013560648201526064815261136d60848261187b565b604051907f8dd725fa9d6cd150017ab9e60318d40616439424e2fade9c1c58854950917dfc30928061120a4694826118ed565b90507fcf54734705fd889f6c3dd58ec1a558452d5cd3a3c5ef048ee5b5d925418b90db8103611400575060405163f57bd6db60e01b60208201525f60248201526064918201356044808301919091528152621e84809161136d908261187b565b7f9a3c1f530d04162bf90017397efe9a9311e694c35705e3794d59287a95b0e8fe810361145e5750604051638c5fdff960e01b60208201525f60248201526064918201356044808301919091528152621e84809161136d908261187b565b7fee6234a3449f904f79d68953452c2b89497ebd146a8bc7ae5b0b4e8f3778a37181036114bc57506040516309bf5e4160e11b60208201525f60248201526064918201356044808301919091528152621e84809161136d908261187b565b7f4f84709bd4231f3fd9f66fe6df31a6590e47b2dbb73bd6a1e74d0f3d35474b02146114e457005b604051637814ac7f60e01b60208201525f60248201526064918201356044808301919091528152621e84809161136d908261187b565b507fb2a1984478c1064cb30b6e5bd7410ed80e897a5a51f65a9c4a826d92ba5a34928314611252565b60405162461bcd60e51b8152602060048201526007602482015266564d206f6e6c7960c81b6044820152606490fd5b346102aa575f3660031901126102aa5761159160ff6002541615611789565b60035460ff906115ab336001600160a01b038316146117cd565b60a01c16156116bb576115bc611c7e565b5f5b815181146116ac5760025460081c6001600160a01b0316906115e08184611837565b51516001600160a01b0360206115f68487611837565b510151169260406116078487611837565b5101519060606116178588611837565b5101519460806116278689611837565b5101519360a0611637878a611837565b51015190833b156102aa576040516305a6aced60e41b815260048101919091526001600160a01b0392909216602483015260448201939093526064810195909552608485019290925260a48401525f90839060c490829084905af191821561029f576116a7926109005750611808565b6115be565b6003805460ff60a01b19169055005b60405162461bcd60e51b815260206004820152600a602482015269139bdd081c185d5cd95960b21b6044820152606490fd5b600435906001600160a01b03821682036102aa57565b602435906001600160a01b03821682036102aa57565b6009548110156117315760095f5260205f2001905f90565b634e487b7160e01b5f52603260045260245ffd5b346102aa575f3660031901126102aa576040517f00000000000000000000000000000000000000000000000000000000000000006001600160a01b03168152602090f35b1561179057565b60405162461bcd60e51b81526020600482015260156024820152745265616374697665204e6574776f726b206f6e6c7960581b6044820152606490fd5b156117d457565b60405162461bcd60e51b815260206004820152600c60248201526b155b985d5d1a1bdc9a5e995960a21b6044820152606490fd5b5f1981146118165760010190565b634e487b7160e01b5f52601160045260245ffd5b8051156117315760200190565b80518210156117315760209160051b010190565b60c0810190811067ffffffffffffffff82111761186757604052565b634e487b7160e01b5f52604160045260245ffd5b90601f8019910116810190811067ffffffffffffffff82111761186757604052565b60a09194935f516020611f365f395f51905f529360c08301968352600180851b0316602083015260408201528260608201528260808201520152565b356001600160a01b03811681036102aa5790565b602060409281835280519182918282860152018484015e5f828201840152601f01601f1916010190565b1561191e57565b60405162461bcd60e51b815260206004820152601360248201527243616c6c6261636b2070726f7879206f6e6c7960681b6044820152606490fd5b905f90825f52600860205260ff60405f205416611b885760405160a0810181811067ffffffffffffffff821117611867576040528381526020810191825260408101905f825260608101905f825260808101935f8552865f52600760205260405f20915182555160018201556002810192519160038310156102ba5760ff9360049385801983541691161790555160038201550191511660ff19825416179055815f52600860205260405f20600160ff198254161790556009546801000000000000000081101561186757806001611a349201600955611719565b81549060031b9084821b915f19901b19161790556006541580611b7b575b80611b6b575b611a91575b7f3e855904fd4f325c6f6098b2d870e5a7adbedc51f8edbb5a7ac5e5e673d5984790611a8a600654611808565b60065580a2565b600254600454919060081c6001600160a01b0316803b156102aa576040516305a6aced60e41b8152925f918491829084908290611ad39085466004850161189d565b03925af1801561029f57611b39575b7f3e855904fd4f325c6f6098b2d870e5a7adbedc51f8edbb5a7ac5e5e673d598479150600160ff1960055416176005555f516020611f165f395f51905f526040600454815190600182526020820152a19050611a5d565b505f611b449161187b565b7f3e855904fd4f325c6f6098b2d870e5a7adbedc51f8edbb5a7ac5e5e673d598475f611ae2565b5060ff60035460a01c1615611a58565b5060ff6005541615611a52565b505050565b8015611816575f190190565b67ffffffffffffffff81116118675760051b60200190565b3d15611beb573d9067ffffffffffffffff82116118675760405191611be0601f8201601f19166020018461187b565b82523d5f602084013e565b606090565b15611bf757565b60405162461bcd60e51b8152602060048201526013602482015272115512081d1c985b9cd9995c8819985a5b1959606a1b6044820152606490fd5b15611c3957565b60405162461bcd60e51b815260206004820152601960248201527f496e76616c696420726563697069656e742061646472657373000000000000006044820152606490fd5b606060ff6005541615611d6557506040805190611c9b818361187b565b60018252601f19015f5b818110611d2a5750506002546004546040519160081c6001600160a01b0316611ccd8361184b565b468352602083015260408201525f516020611f365f395f51905f5260608201525f516020611f365f395f51905f5260808201525f516020611f365f395f51905f5260a0820152611d1c8261182a565b52611d268161182a565b5090565b602090604051611d398161184b565b5f81525f838201525f60408201525f60608201525f60808201525f60a082015282828601015201611ca5565b60405190611d7460208361187b565b5f82525f90815b828110611d885750505090565b602090604051611d978161184b565b5f81525f838201525f60408201525f848201525f60808201525f60a082015282828701015201611d7b565b90804710611e465780611dd3575050565b5f91829160405190611de660208361187b565b83825260208201915f36843751926001600160a01b03165af1611e07611bb1565b5015611e0f57565b60405162461bcd60e51b815260206004820152600f60248201526e151c985b9cd9995c8819985a5b1959608a1b6044820152606490fd5b60405162461bcd60e51b8152602060048201526012602482015271496e73756666696369656e742066756e647360701b6044820152606490fd5b916040519163a9059cbb60e01b5f5260018060a01b031660045260245260205f60448180865af19060015f5114821615611ee0575b60405215611ec05750565b635274afe760e01b5f9081526001600160a01b0391909116600452602490fd5b906001811516611ef857823b15153d15161690611eb5565b503d5f823e3d90fd5b35906001600160a01b03821682036102aa5756fee9bc503ad7e176ce9492659545cfff47831e0e8d387566a442f55a007c1deabda65f96fc951c35ead38878e0f0b7a3c744a6f5ccc1476b313353ce31712313ada2646970667358221220ffc9256565726b8f7a630d30db6c2a78da1ec164ad358c7e39f104341a49c20964736f6c634300081e0033a65f96fc951c35ead38878e0f0b7a3c744a6f5ccc1476b313353ce31712313ad","linkReferences":{}},"methodIdentifiers":{"activeConfigCount()":"0ed99a83","configIds(uint256)":"58fa548b","coverDebt()":"7a90b990","cronSubscribed()":"c0d062c6","cronTopic()":"ec68c724","destinationChainId()":"b0750611","getActiveConfigs()":"3a383d44","getCronTopic()":"c6380a22","getProtectionCallback()":"ceb6b317","isTracked(uint256)":"1194f9e9","pause()":"8456cb59","pay(uint256)":"c290d691","persistConfigCancelled(address,uint256)":"f57bd6db","persistConfigCreated(address,uint256,uint256)":"0daa6bf9","persistConfigExecuted(address,uint256)":"8c5fdff9","persistConfigPaused(address,uint256)":"137ebc82","persistConfigResumed(address,uint256)":"7814ac7f","protectionCallback()":"c2f19ec1","react((uint256,address,uint256,uint256,uint256,uint256,bytes,uint256,uint256,uint256,uint256,uint256))":"0d152c2c","rescueAllERC20(address,address)":"d2cd0cd8","rescueERC20(address,address,uint256)":"b2118a8d","resume()":"046f7da2","setCronTopic(uint256)":"3b0a42e2","subscribeToCron(address)":"8d3c6e72","trackedConfigs(uint256)":"dbb38c36","unsubscribeFromCron(address)":"21c25559","withdrawAllETH()":"90386bbf","withdrawETH(uint256)":"f14210a6"},"id":14}