{
  "_format": "hh-sol-artifact-1",
  "contractName": "AaveHFReactive",
  "sourceName": "contracts/aave-hf-guard/AaveHFReactive.sol",
  "abi": [
    {
      "inputs": [
        {
          "internalType": "address",
          "name": "_callbackContract",
          "type": "address"
        },
        {
          "internalType": "address",
          "name": "_cronTicker",
          "type": "address"
        },
        {
          "internalType": "uint64",
          "name": "_callbackGasLimit",
          "type": "uint64"
        }
      ],
      "stateMutability": "payable",
      "type": "constructor"
    },
    {
      "anonymous": false,
      "inputs": [
        {
          "indexed": true,
          "internalType": "uint256",
          "name": "chain_id",
          "type": "uint256"
        },
        {
          "indexed": true,
          "internalType": "address",
          "name": "_contract",
          "type": "address"
        },
        {
          "indexed": true,
          "internalType": "uint64",
          "name": "gas_limit",
          "type": "uint64"
        },
        {
          "indexed": false,
          "internalType": "bytes",
          "name": "payload",
          "type": "bytes"
        }
      ],
      "name": "Callback",
      "type": "event"
    },
    {
      "inputs": [],
      "name": "callbackContract",
      "outputs": [
        {
          "internalType": "address",
          "name": "",
          "type": "address"
        }
      ],
      "stateMutability": "view",
      "type": "function"
    },
    {
      "inputs": [],
      "name": "callbackGasLimit",
      "outputs": [
        {
          "internalType": "uint64",
          "name": "",
          "type": "uint64"
        }
      ],
      "stateMutability": "view",
      "type": "function"
    },
    {
      "inputs": [],
      "name": "cronTicker",
      "outputs": [
        {
          "internalType": "address",
          "name": "",
          "type": "address"
        }
      ],
      "stateMutability": "view",
      "type": "function"
    },
    {
      "inputs": [],
      "name": "owner",
      "outputs": [
        {
          "internalType": "address",
          "name": "",
          "type": "address"
        }
      ],
      "stateMutability": "view",
      "type": "function"
    },
    {
      "inputs": [
        {
          "internalType": "uint256",
          "name": "chain_id",
          "type": "uint256"
        },
        {
          "internalType": "address",
          "name": "_contract",
          "type": "address"
        },
        {
          "internalType": "uint256",
          "name": "topic_0",
          "type": "uint256"
        },
        {
          "internalType": "uint256",
          "name": "",
          "type": "uint256"
        },
        {
          "internalType": "uint256",
          "name": "",
          "type": "uint256"
        },
        {
          "internalType": "uint256",
          "name": "",
          "type": "uint256"
        },
        {
          "internalType": "bytes",
          "name": "",
          "type": "bytes"
        },
        {
          "internalType": "uint256",
          "name": "",
          "type": "uint256"
        },
        {
          "internalType": "uint256",
          "name": "",
          "type": "uint256"
        }
      ],
      "name": "react",
      "outputs": [],
      "stateMutability": "nonpayable",
      "type": "function"
    },
    {
      "inputs": [],
      "name": "withdraw",
      "outputs": [],
      "stateMutability": "nonpayable",
      "type": "function"
    },
    {
      "stateMutability": "payable",
      "type": "receive"
    }
  ],
  "bytecode": "0x61010060405260405161098a38038061098a833981016040819052610023916102b2565b6001600160a01b03831661006e5760405162461bcd60e51b815260206004820152600d60248201526c5a65726f2063616c6c6261636b60981b60448201526064015b60405180910390fd5b6001600160a01b0382166100b05760405162461bcd60e51b81526020600482015260096024820152682d32b9379031b937b760b91b6044820152606401610065565b6207a120816001600160401b031610156101005760405162461bcd60e51b8152602060048201526011602482015270476173206c696d697420746f6f206c6f7760781b6044820152606401610065565b6001600160a01b03808416608052821660a0526001600160401b03811660c0523360e052739b9bb25f1a81078c544c829c5eb7822d747cf43480632175e20361014a600234610306565b60405160e083901b6001600160e01b031916815262014a3460048201526001600160a01b03881660248201527f41310595b97f2ff5ace61e59e0b13b7adef66393293e864c9fe7df475d6ecb3360448201526000606482018190526084820181905260a4820181905260c482015260e4016000604051808303818588803b1580156101d457600080fd5b505af11580156101e8573d6000803e3d6000fd5b5050505050806001600160a01b0316632175e2036002346102099190610306565b6040516001600160e01b031960e084901b1681526251257860048201526001600160a01b0387166024820152600060448201819052606482018190526084820181905260a4820181905260c482015260e4016000604051808303818588803b15801561027457600080fd5b505af1158015610288573d6000803e3d6000fd5b505050505050505050610328565b80516001600160a01b03811681146102ad57600080fd5b919050565b6000806000606084860312156102c757600080fd5b6102d084610296565b92506102de60208501610296565b60408501519092506001600160401b03811681146102fb57600080fd5b809150509250925092565b60008261032357634e487b7160e01b600052601260045260246000fd5b500490565b60805160a05160c05160e0516105f26103986000396000818161014c015281816101ad015261021701526000818160770152818161030a015261041101526000818161010001526103a30152600081816101800152818161027101528181610335015261043c01526105f26000f3fe6080604052600436106100595760003560e01c806324f74697146100655780633ccfd60b146100b75780634190e48f146100ce5780635b37af63146100ee5780638da5cb5b1461013a578063bd7e2aa41461016e57600080fd5b3661006057005b600080fd5b34801561007157600080fd5b506100997f000000000000000000000000000000000000000000000000000000000000000081565b60405167ffffffffffffffff90911681526020015b60405180910390f35b3480156100c357600080fd5b506100cc6101a2565b005b3480156100da57600080fd5b506100cc6100e936600461049a565b610262565b3480156100fa57600080fd5b506101227f000000000000000000000000000000000000000000000000000000000000000081565b6040516001600160a01b0390911681526020016100ae565b34801561014657600080fd5b506101227f000000000000000000000000000000000000000000000000000000000000000081565b34801561017a57600080fd5b506101227f000000000000000000000000000000000000000000000000000000000000000081565b336001600160a01b037f0000000000000000000000000000000000000000000000000000000000000000161461020a5760405162461bcd60e51b81526020600482015260096024820152682737ba1037bbb732b960b91b604482015260640160405180910390fd5b6040516001600160a01b037f000000000000000000000000000000000000000000000000000000000000000016904780156108fc02916000818181858888f1935050505015801561025f573d6000803e3d6000fd5b50565b62014a348a1480156102a557507f00000000000000000000000000000000000000000000000000000000000000006001600160a01b0316896001600160a01b0316145b80156102d057507f41310595b97f2ff5ace61e59e0b13b7adef66393293e864c9fe7df475d6ecb3388145b156103945760408051600481526024810182526020810180516001600160e01b0316637a6ec61b60e11b179052905167ffffffffffffffff7f000000000000000000000000000000000000000000000000000000000000000016916001600160a01b037f0000000000000000000000000000000000000000000000000000000000000000169162014a34917f8dd725fa9d6cd150017ab9e60318d40616439424e2fade9c1c58854950917dfc91610387919061056d565b60405180910390a461048e565b625125788a1480156103d757507f00000000000000000000000000000000000000000000000000000000000000006001600160a01b0316896001600160a01b0316145b1561048e5760408051600481526024810182526020810180516001600160e01b0316637a6ec61b60e11b179052905167ffffffffffffffff7f000000000000000000000000000000000000000000000000000000000000000016916001600160a01b037f0000000000000000000000000000000000000000000000000000000000000000169162014a34917f8dd725fa9d6cd150017ab9e60318d40616439424e2fade9c1c58854950917dfc91610387919061056d565b50505050505050505050565b6000806000806000806000806000806101208b8d0312156104ba57600080fd5b8a35995060208b01356001600160a01b03811681146104d857600080fd5b985060408b0135975060608b0135965060808b0135955060a08b0135945060c08b013567ffffffffffffffff8082111561051157600080fd5b818d0191508d601f83011261052557600080fd5b81358181111561053457600080fd5b8e602082850101111561054657600080fd5b9b9e9a9d50989b979a96999598506020019660e08101359561010090910135945092505050565b60006020808352835180602085015260005b8181101561059b5785810183015185820160400152820161057f565b506000604082860101526040601f19601f830116850101925050509291505056fea26469706673582212200bb4eaae4d16d1b5d422b91442d2e420280356a5a56ffec93c071a1c45201fd964736f6c63430008180033",
  "linkReferences": {},
  "deployedLinkReferences": {}
}