{
  "_format": "hh-sol-artifact-1",
  "contractName": "AaveHFCallback",
  "sourceName": "contracts/aave-hf-guard/AaveHFCallback.sol",
  "abi": [
    {
      "inputs": [
        {
          "internalType": "address",
          "name": "_reactiveNetworkSender",
          "type": "address"
        }
      ],
      "stateMutability": "nonpayable",
      "type": "constructor"
    },
    {
      "anonymous": false,
      "inputs": [
        {
          "indexed": false,
          "internalType": "uint256",
          "name": "checked",
          "type": "uint256"
        },
        {
          "indexed": false,
          "internalType": "uint256",
          "name": "triggered",
          "type": "uint256"
        },
        {
          "indexed": false,
          "internalType": "uint256",
          "name": "expired",
          "type": "uint256"
        }
      ],
      "name": "CycleCompleted",
      "type": "event"
    },
    {
      "anonymous": false,
      "inputs": [
        {
          "indexed": true,
          "internalType": "uint256",
          "name": "id",
          "type": "uint256"
        },
        {
          "indexed": true,
          "internalType": "address",
          "name": "protectedUser",
          "type": "address"
        }
      ],
      "name": "HealthCheckFailed",
      "type": "event"
    },
    {
      "anonymous": false,
      "inputs": [
        {
          "indexed": true,
          "internalType": "uint256",
          "name": "id",
          "type": "uint256"
        },
        {
          "indexed": true,
          "internalType": "address",
          "name": "protectedUser",
          "type": "address"
        },
        {
          "indexed": false,
          "internalType": "uint256",
          "name": "healthFactor",
          "type": "uint256"
        }
      ],
      "name": "ProtectionTriggered",
      "type": "event"
    },
    {
      "anonymous": false,
      "inputs": [
        {
          "indexed": true,
          "internalType": "uint256",
          "name": "id",
          "type": "uint256"
        }
      ],
      "name": "SubscriptionExpired",
      "type": "event"
    },
    {
      "anonymous": false,
      "inputs": [
        {
          "indexed": true,
          "internalType": "uint256",
          "name": "id",
          "type": "uint256"
        },
        {
          "indexed": true,
          "internalType": "address",
          "name": "agent",
          "type": "address"
        },
        {
          "indexed": true,
          "internalType": "address",
          "name": "protectedUser",
          "type": "address"
        },
        {
          "indexed": false,
          "internalType": "uint256",
          "name": "threshold",
          "type": "uint256"
        },
        {
          "indexed": false,
          "internalType": "uint256",
          "name": "expiresAt",
          "type": "uint256"
        }
      ],
      "name": "SubscriptionRegistered",
      "type": "event"
    },
    {
      "inputs": [],
      "name": "AAVE_POOL",
      "outputs": [
        {
          "internalType": "address",
          "name": "",
          "type": "address"
        }
      ],
      "stateMutability": "view",
      "type": "function"
    },
    {
      "inputs": [
        {
          "internalType": "uint256",
          "name": "",
          "type": "uint256"
        }
      ],
      "name": "activeIds",
      "outputs": [
        {
          "internalType": "uint256",
          "name": "",
          "type": "uint256"
        }
      ],
      "stateMutability": "view",
      "type": "function"
    },
    {
      "inputs": [],
      "name": "activeSubscriptionCount",
      "outputs": [
        {
          "internalType": "uint256",
          "name": "",
          "type": "uint256"
        }
      ],
      "stateMutability": "view",
      "type": "function"
    },
    {
      "inputs": [
        {
          "internalType": "uint256",
          "name": "id",
          "type": "uint256"
        }
      ],
      "name": "cancelSubscription",
      "outputs": [],
      "stateMutability": "nonpayable",
      "type": "function"
    },
    {
      "inputs": [],
      "name": "getActiveIds",
      "outputs": [
        {
          "internalType": "uint256[]",
          "name": "",
          "type": "uint256[]"
        }
      ],
      "stateMutability": "view",
      "type": "function"
    },
    {
      "inputs": [
        {
          "internalType": "uint256",
          "name": "id",
          "type": "uint256"
        }
      ],
      "name": "getSubscription",
      "outputs": [
        {
          "components": [
            {
              "internalType": "address",
              "name": "agent",
              "type": "address"
            },
            {
              "internalType": "address",
              "name": "protectedUser",
              "type": "address"
            },
            {
              "internalType": "address",
              "name": "collateralAsset",
              "type": "address"
            },
            {
              "internalType": "uint256",
              "name": "threshold",
              "type": "uint256"
            },
            {
              "internalType": "uint256",
              "name": "collateralAmount",
              "type": "uint256"
            },
            {
              "internalType": "uint256",
              "name": "expiresAt",
              "type": "uint256"
            },
            {
              "internalType": "bool",
              "name": "active",
              "type": "bool"
            }
          ],
          "internalType": "struct AaveHFCallback.Subscription",
          "name": "",
          "type": "tuple"
        }
      ],
      "stateMutability": "view",
      "type": "function"
    },
    {
      "inputs": [],
      "name": "nextId",
      "outputs": [
        {
          "internalType": "uint256",
          "name": "",
          "type": "uint256"
        }
      ],
      "stateMutability": "view",
      "type": "function"
    },
    {
      "inputs": [],
      "name": "owner",
      "outputs": [
        {
          "internalType": "address",
          "name": "",
          "type": "address"
        }
      ],
      "stateMutability": "view",
      "type": "function"
    },
    {
      "inputs": [],
      "name": "reactiveNetworkSender",
      "outputs": [
        {
          "internalType": "address",
          "name": "",
          "type": "address"
        }
      ],
      "stateMutability": "view",
      "type": "function"
    },
    {
      "inputs": [
        {
          "internalType": "address",
          "name": "agent",
          "type": "address"
        },
        {
          "internalType": "address",
          "name": "protectedUser",
          "type": "address"
        },
        {
          "internalType": "address",
          "name": "collateralAsset",
          "type": "address"
        },
        {
          "internalType": "uint256",
          "name": "threshold",
          "type": "uint256"
        },
        {
          "internalType": "uint256",
          "name": "collateralAmount",
          "type": "uint256"
        },
        {
          "internalType": "uint256",
          "name": "duration",
          "type": "uint256"
        }
      ],
      "name": "register",
      "outputs": [
        {
          "internalType": "uint256",
          "name": "id",
          "type": "uint256"
        }
      ],
      "stateMutability": "nonpayable",
      "type": "function"
    },
    {
      "inputs": [],
      "name": "runCycle",
      "outputs": [],
      "stateMutability": "nonpayable",
      "type": "function"
    },
    {
      "inputs": [
        {
          "internalType": "uint256",
          "name": "",
          "type": "uint256"
        }
      ],
      "name": "subscriptions",
      "outputs": [
        {
          "internalType": "address",
          "name": "agent",
          "type": "address"
        },
        {
          "internalType": "address",
          "name": "protectedUser",
          "type": "address"
        },
        {
          "internalType": "address",
          "name": "collateralAsset",
          "type": "address"
        },
        {
          "internalType": "uint256",
          "name": "threshold",
          "type": "uint256"
        },
        {
          "internalType": "uint256",
          "name": "collateralAmount",
          "type": "uint256"
        },
        {
          "internalType": "uint256",
          "name": "expiresAt",
          "type": "uint256"
        },
        {
          "internalType": "bool",
          "name": "active",
          "type": "bool"
        }
      ],
      "stateMutability": "view",
      "type": "function"
    },
    {
      "inputs": [
        {
          "internalType": "address",
          "name": "newOwner",
          "type": "address"
        }
      ],
      "name": "transferOwnership",
      "outputs": [],
      "stateMutability": "nonpayable",
      "type": "function"
    },
    {
      "inputs": [
        {
          "internalType": "address",
          "name": "newSender",
          "type": "address"
        }
      ],
      "name": "updateReactiveNetworkSender",
      "outputs": [],
      "stateMutability": "nonpayable",
      "type": "function"
    },
    {
      "stateMutability": "payable",
      "type": "receive"
    }
  ],
  "bytecode": "0x608060405234801561001057600080fd5b5060405161146e38038061146e83398101604081905261002f91610062565b60008054336001600160a01b031991821617909155600180549091166001600160a01b0392909216919091179055610092565b60006020828403121561007457600080fd5b81516001600160a01b038116811461008b57600080fd5b9392505050565b6113cd806100a16000396000f3fe6080604052600436106100e15760003560e01c8063884f00751161007f578063dc311dd311610059578063dc311dd3146102e0578063f1e1c92b1461040b578063f2fde38b1461042b578063f4dd8c361461044b57600080fd5b8063884f00751461028b5780638da5cb5b146102ab578063b16abdd4146102cb57600080fd5b80632d5bbf60116100bb5780632d5bbf60146101765780633698b86114610227578063386797611461025557806361b8ce8c1461027557600080fd5b806308a01675146100ed57806311e40a8d14610132578063212350831461015457600080fd5b366100e857005b600080fd5b3480156100f957600080fd5b50610115736ae43d3271ff6888e7fc43fd7321a503ff73895181565b6040516001600160a01b0390911681526020015b60405180910390f35b34801561013e57600080fd5b50610147610460565b6040516101299190611157565b34801561016057600080fd5b5061017461016f36600461119b565b6104b8565b005b34801561018257600080fd5b506101e161019136600461119b565b600360208190526000918252604090912080546001820154600283015493830154600484015460058501546006909501546001600160a01b03948516969385169593909416939192909160ff1687565b604080516001600160a01b039889168152968816602088015294909616938501939093526060840191909152608083015260a082015290151560c082015260e001610129565b34801561023357600080fd5b5061024761024236600461119b565b6105b2565b604051908152602001610129565b34801561026157600080fd5b506101746102703660046111d0565b6105d3565b34801561028157600080fd5b5061024760025481565b34801561029757600080fd5b50600154610115906001600160a01b031681565b3480156102b757600080fd5b50600054610115906001600160a01b031681565b3480156102d757600080fd5b50600454610247565b3480156102ec57600080fd5b506103ab6102fb36600461119b565b6040805160e081018252600080825260208201819052918101829052606081018290526080810182905260a0810182905260c081019190915250600090815260036020818152604092839020835160e08101855281546001600160a01b039081168252600183015481169382019390935260028201549092169382019390935290820154606082015260048201546080820152600582015460a082015260069091015460ff16151560c082015290565b6040805182516001600160a01b039081168252602080850151821690830152838301511691810191909152606080830151908201526080808301519082015260a0808301519082015260c09182015115159181019190915260e001610129565b34801561041757600080fd5b506102476104263660046111f2565b61061f565b34801561043757600080fd5b506101746104463660046111d0565b610aa3565b34801561045757600080fd5b50610174610b34565b606060048054806020026020016040519081016040528092919081815260200182805480156104ae57602002820191906000526020600020905b81548152602001906001019080831161049a575b5050505050905090565b6000818152600360205260409020600681015460ff1661050c5760405162461bcd60e51b815260206004820152600a6024820152694e6f742061637469766560b01b60448201526064015b60405180910390fd5b80546001600160a01b031633148061052e57506000546001600160a01b031633145b6105695760405162461bcd60e51b815260206004820152600c60248201526b155b985d5d1a1bdc9a5e995960a21b6044820152606401610503565b6000828152600560205260409020546105828382610e3d565b60405183907f3ba88dbd17f56b4d283dc25a121073c946c9052c9829a3c4147dcc1841ce068e90600090a2505050565b600481815481106105c257600080fd5b600091825260209091200154905081565b6000546001600160a01b031633146105fd5760405162461bcd60e51b815260040161050390611251565b600180546001600160a01b0319166001600160a01b0392909216919091179055565b600080546001600160a01b0316331461064a5760405162461bcd60e51b815260040161050390611251565b6001600160a01b03871661068d5760405162461bcd60e51b815260206004820152600a60248201526916995c9bc81859d95b9d60b21b6044820152606401610503565b6001600160a01b0386166106cf5760405162461bcd60e51b81526020600482015260096024820152682d32b937903ab9b2b960b91b6044820152606401610503565b6001600160a01b0385166107125760405162461bcd60e51b815260206004820152600a60248201526916995c9bc8185cdcd95d60b21b6044820152606401610503565b600084116107535760405162461bcd60e51b815260206004820152600e60248201526d16995c9bc81d1a1c995cda1bdb1960921b6044820152606401610503565b600082118015610766575062278d008211155b6107a15760405162461bcd60e51b815260206004820152600c60248201526b2130b210323ab930ba34b7b760a11b6044820152606401610503565b600083116107ea5760405162461bcd60e51b815260206004820152601660248201527516995c9bc818dbdb1b185d195c985b08185b5bdd5b9d60521b6044820152606401610503565b604051636eb1769f60e11b81526001600160a01b03888116600483015230602483015284919087169063dd62ed3e90604401602060405180830381865afa158015610839573d6000803e3d6000fd5b505050506040513d601f19601f8201168201806040525081019061085d9190611274565b10156108ab5760405162461bcd60e51b815260206004820181905260248201527f496e73756666696369656e7420636f6c6c61746572616c20617070726f76616c6044820152606401610503565b600280549060006108bb836112a3565b90915550905060006108cd83426112bc565b90506040518060e00160405280896001600160a01b03168152602001886001600160a01b03168152602001876001600160a01b03168152602001868152602001858152602001828152602001600115158152506003600084815260200190815260200160002060008201518160000160006101000a8154816001600160a01b0302191690836001600160a01b0316021790555060208201518160010160006101000a8154816001600160a01b0302191690836001600160a01b0316021790555060408201518160020160006101000a8154816001600160a01b0302191690836001600160a01b03160217905550606082015181600301556080820151816004015560a0820151816005015560c08201518160060160006101000a81548160ff02191690831515021790555090505060048054905060056000848152602001908152602001600020819055506004829080600181540180825580915050600190039060005260206000200160009091909190915055866001600160a01b0316886001600160a01b0316837f41310595b97f2ff5ace61e59e0b13b7adef66393293e864c9fe7df475d6ecb338885604051610a90929190918252602082015260400190565b60405180910390a4509695505050505050565b6000546001600160a01b03163314610acd5760405162461bcd60e51b815260040161050390611251565b6001600160a01b038116610b125760405162461bcd60e51b815260206004820152600c60248201526b5a65726f206164647265737360a01b6044820152606401610503565b600080546001600160a01b0319166001600160a01b0392909216919091179055565b6001546001600160a01b0316331480610b5757506000546001600160a01b031633145b610b945760405162461bcd60e51b815260206004820152600e60248201526d139bdd08185d5d1a1bdc9a5e995960921b6044820152606401610503565b600454600090819081905b8015610df65780610baf816112d5565b915050600060048281548110610bc757610bc76112ec565b90600052602060002001549050600060036000838152602001908152602001600020905080600501544210610c4057610c008284610e3d565b83610c0a816112a3565b6040519095508391507f3ba88dbd17f56b4d283dc25a121073c946c9052c9829a3c4147dcc1841ce068e90600090a25050610b9f565b6001810154604051632fe4a15f60e21b81526001600160a01b039091166004820152736ae43d3271ff6888e7fc43fd7321a503ff7389519063bf92857c9060240160c060405180830381865afa925050508015610cba575060408051601f3d908101601f19168201909252610cb791810190611302565b60015b610cff5760018101546040516001600160a01b039091169083907fe306bbd5b3c22c5207151eebf7dd82799c317a6c68be14202dde29f8bec9338c90600090a3610def565b8b610d09816112a3565b9c5050600019811480610d1a575080155b15610d2c575050505050505050610b9f565b8660030154811015610de8576000610d4388610f01565b90508015610da2578b610d55816112a3565b60018a0154604051858152919e506001600160a01b031691508a907fe28026915af2d467e2e22de48fd06f32fc2dfeef76badc0dac877f8d877544509060200160405180910390a3610de6565b610dac898b610e3d565b8a610db6816112a3565b604051909c508a91507f3ba88dbd17f56b4d283dc25a121073c946c9052c9829a3c4147dcc1841ce068e90600090a25b505b5050505050505b5050610b9f565b60408051858152602081018590529081018390527f188dffc590872dc919b0e448791f95e29ebd499b88d4318fc474dfc17aac6e3e9060600160405180910390a150505050565b6000828152600360205260408120600601805460ff19169055600454610e659060019061134c565b9050808214610ec457600060048281548110610e8357610e836112ec565b906000526020600020015490508060048481548110610ea457610ea46112ec565b600091825260208083209091019290925591825260059052604090208290555b6004805480610ed557610ed561135f565b600082815260208082208301600019908101839055909201909255938152600590935250506040812055565b60028101546004808301548354604051636eb1769f60e11b81526001600160a01b03918216938101939093523060248401526000931691829063dd62ed3e90604401602060405180830381865afa158015610f60573d6000803e3d6000fd5b505050506040513d601f19601f82011682018060405250810190610f849190611274565b1015610f935750600092915050565b82546004808501546040516323b872dd60e01b81526001600160a01b03938416928101929092523060248301526044820152908216906323b872dd906064016020604051808303816000875af192505050801561100d575060408051601f3d908101601f1916820190925261100a91810190611375565b60015b61101a5750600092915050565b80611029575060009392505050565b5060048381015460405163095ea7b360e01b8152736ae43d3271ff6888e7fc43fd7321a503ff7389519281019290925260248201526001600160a01b0382169063095ea7b3906044016020604051808303816000875af1158015611091573d6000803e3d6000fd5b505050506040513d601f19601f820116820180604052508101906110b59190611375565b506002830154600480850154600186015460405163617ba03760e01b81526001600160a01b0394851693810193909352602483019190915291909116604482015260006064820152736ae43d3271ff6888e7fc43fd7321a503ff7389519063617ba03790608401600060405180830381600087803b15801561113657600080fd5b505af115801561114a573d6000803e3d6000fd5b5060019695505050505050565b6020808252825182820181905260009190848201906040850190845b8181101561118f57835183529284019291840191600101611173565b50909695505050505050565b6000602082840312156111ad57600080fd5b5035919050565b80356001600160a01b03811681146111cb57600080fd5b919050565b6000602082840312156111e257600080fd5b6111eb826111b4565b9392505050565b60008060008060008060c0878903121561120b57600080fd5b611214876111b4565b9550611222602088016111b4565b9450611230604088016111b4565b9350606087013592506080870135915060a087013590509295509295509295565b6020808252600990820152682737ba1037bbb732b960b91b604082015260600190565b60006020828403121561128657600080fd5b5051919050565b634e487b7160e01b600052601160045260246000fd5b6000600182016112b5576112b561128d565b5060010190565b808201808211156112cf576112cf61128d565b92915050565b6000816112e4576112e461128d565b506000190190565b634e487b7160e01b600052603260045260246000fd5b60008060008060008060c0878903121561131b57600080fd5b865195506020870151945060408701519350606087015192506080870151915060a087015190509295509295509295565b818103818111156112cf576112cf61128d565b634e487b7160e01b600052603160045260246000fd5b60006020828403121561138757600080fd5b815180151581146111eb57600080fdfea26469706673582212200794054f35fd1a8731948639c600bf160ad4bdbf248350ad342393104bc3a10864736f6c63430008180033",
  "linkReferences": {},
  "deployedLinkReferences": {}
}