{
  "_format": "hh-sol-artifact-1",
  "contractName": "AaveHFCallback",
  "sourceName": "contracts/aave-hf-guard/AaveHFCallback.sol",
  "abi": [
    {
      "inputs": [
        {
          "internalType": "address",
          "name": "_reactiveNetworkSender",
          "type": "address"
        }
      ],
      "stateMutability": "nonpayable",
      "type": "constructor"
    },
    {
      "anonymous": false,
      "inputs": [
        {
          "indexed": false,
          "internalType": "uint256",
          "name": "checked",
          "type": "uint256"
        },
        {
          "indexed": false,
          "internalType": "uint256",
          "name": "triggered",
          "type": "uint256"
        },
        {
          "indexed": false,
          "internalType": "uint256",
          "name": "expired",
          "type": "uint256"
        }
      ],
      "name": "CycleCompleted",
      "type": "event"
    },
    {
      "anonymous": false,
      "inputs": [
        {
          "indexed": true,
          "internalType": "uint256",
          "name": "id",
          "type": "uint256"
        },
        {
          "indexed": true,
          "internalType": "address",
          "name": "protectedUser",
          "type": "address"
        }
      ],
      "name": "HealthCheckFailed",
      "type": "event"
    },
    {
      "anonymous": false,
      "inputs": [
        {
          "indexed": true,
          "internalType": "address",
          "name": "by",
          "type": "address"
        }
      ],
      "name": "Paused",
      "type": "event"
    },
    {
      "anonymous": false,
      "inputs": [
        {
          "indexed": true,
          "internalType": "uint256",
          "name": "id",
          "type": "uint256"
        },
        {
          "indexed": true,
          "internalType": "address",
          "name": "protectedUser",
          "type": "address"
        },
        {
          "indexed": false,
          "internalType": "uint256",
          "name": "healthFactor",
          "type": "uint256"
        }
      ],
      "name": "ProtectionTriggered",
      "type": "event"
    },
    {
      "anonymous": false,
      "inputs": [
        {
          "indexed": true,
          "internalType": "uint256",
          "name": "id",
          "type": "uint256"
        }
      ],
      "name": "SubscriptionExpired",
      "type": "event"
    },
    {
      "anonymous": false,
      "inputs": [
        {
          "indexed": true,
          "internalType": "uint256",
          "name": "id",
          "type": "uint256"
        },
        {
          "indexed": true,
          "internalType": "address",
          "name": "agent",
          "type": "address"
        },
        {
          "indexed": true,
          "internalType": "address",
          "name": "protectedUser",
          "type": "address"
        },
        {
          "indexed": false,
          "internalType": "uint256",
          "name": "threshold",
          "type": "uint256"
        },
        {
          "indexed": false,
          "internalType": "uint256",
          "name": "expiresAt",
          "type": "uint256"
        }
      ],
      "name": "SubscriptionRegistered",
      "type": "event"
    },
    {
      "anonymous": false,
      "inputs": [
        {
          "indexed": true,
          "internalType": "address",
          "name": "by",
          "type": "address"
        }
      ],
      "name": "Unpaused",
      "type": "event"
    },
    {
      "inputs": [],
      "name": "AAVE_POOL",
      "outputs": [
        {
          "internalType": "address",
          "name": "",
          "type": "address"
        }
      ],
      "stateMutability": "view",
      "type": "function"
    },
    {
      "inputs": [
        {
          "internalType": "uint256",
          "name": "",
          "type": "uint256"
        }
      ],
      "name": "activeIds",
      "outputs": [
        {
          "internalType": "uint256",
          "name": "",
          "type": "uint256"
        }
      ],
      "stateMutability": "view",
      "type": "function"
    },
    {
      "inputs": [],
      "name": "activeSubscriptionCount",
      "outputs": [
        {
          "internalType": "uint256",
          "name": "",
          "type": "uint256"
        }
      ],
      "stateMutability": "view",
      "type": "function"
    },
    {
      "inputs": [
        {
          "internalType": "uint256",
          "name": "id",
          "type": "uint256"
        }
      ],
      "name": "cancelSubscription",
      "outputs": [],
      "stateMutability": "nonpayable",
      "type": "function"
    },
    {
      "inputs": [],
      "name": "getActiveIds",
      "outputs": [
        {
          "internalType": "uint256[]",
          "name": "",
          "type": "uint256[]"
        }
      ],
      "stateMutability": "view",
      "type": "function"
    },
    {
      "inputs": [
        {
          "internalType": "uint256",
          "name": "id",
          "type": "uint256"
        }
      ],
      "name": "getSubscription",
      "outputs": [
        {
          "components": [
            {
              "internalType": "address",
              "name": "agent",
              "type": "address"
            },
            {
              "internalType": "address",
              "name": "protectedUser",
              "type": "address"
            },
            {
              "internalType": "address",
              "name": "collateralAsset",
              "type": "address"
            },
            {
              "internalType": "uint256",
              "name": "threshold",
              "type": "uint256"
            },
            {
              "internalType": "uint256",
              "name": "collateralAmount",
              "type": "uint256"
            },
            {
              "internalType": "uint256",
              "name": "expiresAt",
              "type": "uint256"
            },
            {
              "internalType": "bool",
              "name": "active",
              "type": "bool"
            }
          ],
          "internalType": "struct AaveHFCallback.Subscription",
          "name": "",
          "type": "tuple"
        }
      ],
      "stateMutability": "view",
      "type": "function"
    },
    {
      "inputs": [],
      "name": "nextId",
      "outputs": [
        {
          "internalType": "uint256",
          "name": "",
          "type": "uint256"
        }
      ],
      "stateMutability": "view",
      "type": "function"
    },
    {
      "inputs": [],
      "name": "owner",
      "outputs": [
        {
          "internalType": "address",
          "name": "",
          "type": "address"
        }
      ],
      "stateMutability": "view",
      "type": "function"
    },
    {
      "inputs": [],
      "name": "pause",
      "outputs": [],
      "stateMutability": "nonpayable",
      "type": "function"
    },
    {
      "inputs": [],
      "name": "paused",
      "outputs": [
        {
          "internalType": "bool",
          "name": "",
          "type": "bool"
        }
      ],
      "stateMutability": "view",
      "type": "function"
    },
    {
      "inputs": [],
      "name": "reactiveNetworkSender",
      "outputs": [
        {
          "internalType": "address",
          "name": "",
          "type": "address"
        }
      ],
      "stateMutability": "view",
      "type": "function"
    },
    {
      "inputs": [
        {
          "internalType": "address",
          "name": "agent",
          "type": "address"
        },
        {
          "internalType": "address",
          "name": "protectedUser",
          "type": "address"
        },
        {
          "internalType": "address",
          "name": "collateralAsset",
          "type": "address"
        },
        {
          "internalType": "uint256",
          "name": "threshold",
          "type": "uint256"
        },
        {
          "internalType": "uint256",
          "name": "collateralAmount",
          "type": "uint256"
        },
        {
          "internalType": "uint256",
          "name": "duration",
          "type": "uint256"
        }
      ],
      "name": "register",
      "outputs": [
        {
          "internalType": "uint256",
          "name": "id",
          "type": "uint256"
        }
      ],
      "stateMutability": "nonpayable",
      "type": "function"
    },
    {
      "inputs": [],
      "name": "runCycle",
      "outputs": [],
      "stateMutability": "nonpayable",
      "type": "function"
    },
    {
      "inputs": [
        {
          "internalType": "uint256",
          "name": "",
          "type": "uint256"
        }
      ],
      "name": "subscriptions",
      "outputs": [
        {
          "internalType": "address",
          "name": "agent",
          "type": "address"
        },
        {
          "internalType": "address",
          "name": "protectedUser",
          "type": "address"
        },
        {
          "internalType": "address",
          "name": "collateralAsset",
          "type": "address"
        },
        {
          "internalType": "uint256",
          "name": "threshold",
          "type": "uint256"
        },
        {
          "internalType": "uint256",
          "name": "collateralAmount",
          "type": "uint256"
        },
        {
          "internalType": "uint256",
          "name": "expiresAt",
          "type": "uint256"
        },
        {
          "internalType": "bool",
          "name": "active",
          "type": "bool"
        }
      ],
      "stateMutability": "view",
      "type": "function"
    },
    {
      "inputs": [
        {
          "internalType": "address",
          "name": "newOwner",
          "type": "address"
        }
      ],
      "name": "transferOwnership",
      "outputs": [],
      "stateMutability": "nonpayable",
      "type": "function"
    },
    {
      "inputs": [],
      "name": "unpause",
      "outputs": [],
      "stateMutability": "nonpayable",
      "type": "function"
    },
    {
      "inputs": [
        {
          "internalType": "address",
          "name": "newSender",
          "type": "address"
        }
      ],
      "name": "updateReactiveNetworkSender",
      "outputs": [],
      "stateMutability": "nonpayable",
      "type": "function"
    },
    {
      "stateMutability": "payable",
      "type": "receive"
    }
  ],
  "bytecode": "0x608060405234801561001057600080fd5b5060405161169738038061169783398101604081905261002f91610062565b60008054336001600160a01b031991821617909155600180549091166001600160a01b0392909216919091179055610092565b60006020828403121561007457600080fd5b81516001600160a01b038116811461008b57600080fd5b9392505050565b6115f6806100a16000396000f3fe6080604052600436106101025760003560e01c806361b8ce8c11610095578063b16abdd411610064578063b16abdd414610340578063dc311dd314610355578063f1e1c92b14610480578063f2fde38b146104a0578063f4dd8c36146104c057600080fd5b806361b8ce8c146102d55780638456cb59146102eb578063884f0075146103005780638da5cb5b1461032057600080fd5b80633698b861116100d15780633698b8611461024857806338679761146102765780633f4ba83a146102965780635c975abb146102ab57600080fd5b806308a016751461010e57806311e40a8d1461015357806321235083146101755780632d5bbf601461019757600080fd5b3661010957005b600080fd5b34801561011a57600080fd5b50610136736ae43d3271ff6888e7fc43fd7321a503ff73895181565b6040516001600160a01b0390911681526020015b60405180910390f35b34801561015f57600080fd5b506101686104d5565b60405161014a9190611397565b34801561018157600080fd5b506101956101903660046113db565b61052d565b005b3480156101a357600080fd5b506102026101b23660046113db565b600360208190526000918252604090912080546001820154600283015493830154600484015460058501546006909501546001600160a01b03948516969385169593909416939192909160ff1687565b604080516001600160a01b039889168152968816602088015294909616938501939093526060840191909152608083015260a082015290151560c082015260e00161014a565b34801561025457600080fd5b506102686102633660046113db565b610627565b60405190815260200161014a565b34801561028257600080fd5b50610195610291366004611410565b610648565b3480156102a257600080fd5b50610195610694565b3480156102b757600080fd5b506006546102c59060ff1681565b604051901515815260200161014a565b3480156102e157600080fd5b5061026860025481565b3480156102f757600080fd5b506101956106f5565b34801561030c57600080fd5b50600154610136906001600160a01b031681565b34801561032c57600080fd5b50600054610136906001600160a01b031681565b34801561034c57600080fd5b50600454610268565b34801561036157600080fd5b506104206103703660046113db565b6040805160e081018252600080825260208201819052918101829052606081018290526080810182905260a0810182905260c081019190915250600090815260036020818152604092839020835160e08101855281546001600160a01b039081168252600183015481169382019390935260028201549092169382019390935290820154606082015260048201546080820152600582015460a082015260069091015460ff16151560c082015290565b6040805182516001600160a01b039081168252602080850151821690830152838301511691810191909152606080830151908201526080808301519082015260a0808301519082015260c09182015115159181019190915260e00161014a565b34801561048c57600080fd5b5061026861049b366004611432565b610759565b3480156104ac57600080fd5b506101956104bb366004611410565b610c21565b3480156104cc57600080fd5b50610195610cb2565b6060600480548060200260200160405190810160405280929190818152602001828054801561052357602002820191906000526020600020905b81548152602001906001019080831161050f575b5050505050905090565b6000818152600360205260409020600681015460ff166105815760405162461bcd60e51b815260206004820152600a6024820152694e6f742061637469766560b01b60448201526064015b60405180910390fd5b80546001600160a01b03163314806105a357506000546001600160a01b031633145b6105de5760405162461bcd60e51b815260206004820152600c60248201526b155b985d5d1a1bdc9a5e995960a21b6044820152606401610578565b6000828152600560205260409020546105f78382610ff1565b60405183907f3ba88dbd17f56b4d283dc25a121073c946c9052c9829a3c4147dcc1841ce068e90600090a2505050565b6004818154811061063757600080fd5b600091825260209091200154905081565b6000546001600160a01b031633146106725760405162461bcd60e51b815260040161057890611491565b600180546001600160a01b0319166001600160a01b0392909216919091179055565b6000546001600160a01b031633146106be5760405162461bcd60e51b815260040161057890611491565b6006805460ff1916905560405133907f5db9ee0a495bf2e6ff9c91a7834c1ba4fdd244a5e8aa4e537bd38aeae4b073aa90600090a2565b6000546001600160a01b0316331461071f5760405162461bcd60e51b815260040161057890611491565b6006805460ff1916600117905560405133907f62e78cea01bee320cd4e420270b5ea74000d11b0c9f74754ebdbfc544b05a25890600090a2565b600080546001600160a01b031633146107845760405162461bcd60e51b815260040161057890611491565b60065460ff16156107c85760405162461bcd60e51b815260206004820152600e60248201526d14d95c9d9a58d9481c185d5cd95960921b6044820152606401610578565b6001600160a01b03871661080b5760405162461bcd60e51b815260206004820152600a60248201526916995c9bc81859d95b9d60b21b6044820152606401610578565b6001600160a01b03861661084d5760405162461bcd60e51b81526020600482015260096024820152682d32b937903ab9b2b960b91b6044820152606401610578565b6001600160a01b0385166108905760405162461bcd60e51b815260206004820152600a60248201526916995c9bc8185cdcd95d60b21b6044820152606401610578565b600084116108d15760405162461bcd60e51b815260206004820152600e60248201526d16995c9bc81d1a1c995cda1bdb1960921b6044820152606401610578565b6000821180156108e4575062278d008211155b61091f5760405162461bcd60e51b815260206004820152600c60248201526b2130b210323ab930ba34b7b760a11b6044820152606401610578565b600083116109685760405162461bcd60e51b815260206004820152601660248201527516995c9bc818dbdb1b185d195c985b08185b5bdd5b9d60521b6044820152606401610578565b604051636eb1769f60e11b81526001600160a01b03888116600483015230602483015284919087169063dd62ed3e90604401602060405180830381865afa1580156109b7573d6000803e3d6000fd5b505050506040513d601f19601f820116820180604052508101906109db91906114b4565b1015610a295760405162461bcd60e51b815260206004820181905260248201527f496e73756666696369656e7420636f6c6c61746572616c20617070726f76616c6044820152606401610578565b60028054906000610a39836114e3565b9091555090506000610a4b83426114fc565b90506040518060e00160405280896001600160a01b03168152602001886001600160a01b03168152602001876001600160a01b03168152602001868152602001858152602001828152602001600115158152506003600084815260200190815260200160002060008201518160000160006101000a8154816001600160a01b0302191690836001600160a01b0316021790555060208201518160010160006101000a8154816001600160a01b0302191690836001600160a01b0316021790555060408201518160020160006101000a8154816001600160a01b0302191690836001600160a01b03160217905550606082015181600301556080820151816004015560a0820151816005015560c08201518160060160006101000a81548160ff02191690831515021790555090505060048054905060056000848152602001908152602001600020819055506004829080600181540180825580915050600190039060005260206000200160009091909190915055866001600160a01b0316886001600160a01b0316837f41310595b97f2ff5ace61e59e0b13b7adef66393293e864c9fe7df475d6ecb338885604051610c0e929190918252602082015260400190565b60405180910390a4509695505050505050565b6000546001600160a01b03163314610c4b5760405162461bcd60e51b815260040161057890611491565b6001600160a01b038116610c905760405162461bcd60e51b815260206004820152600c60248201526b5a65726f206164647265737360a01b6044820152606401610578565b600080546001600160a01b0319166001600160a01b0392909216919091179055565b6001546001600160a01b0316331480610cd557506000546001600160a01b031633145b610d125760405162461bcd60e51b815260206004820152600e60248201526d139bdd08185d5d1a1bdc9a5e995960921b6044820152606401610578565b60065460ff1615610d565760405162461bcd60e51b815260206004820152600e60248201526d14d95c9d9a58d9481c185d5cd95960921b6044820152606401610578565b600454600090819081905b8015610faa57808060019003915050600060048281548110610d8557610d85611515565b90600052602060002001549050600060036000838152602001908152602001600020905080600501544210610dfe57610dbe8284610ff1565b83610dc8816114e3565b6040519095508391507f3ba88dbd17f56b4d283dc25a121073c946c9052c9829a3c4147dcc1841ce068e90600090a25050610d61565b6001810154604051632fe4a15f60e21b81526001600160a01b039091166004820152736ae43d3271ff6888e7fc43fd7321a503ff7389519063bf92857c9060240160c060405180830381865afa925050508015610e78575060408051601f3d908101601f19168201909252610e759181019061152b565b60015b610ebd5760018101546040516001600160a01b039091169083907fe306bbd5b3c22c5207151eebf7dd82799c317a6c68be14202dde29f8bec9338c90600090a3610fa3565b8b610ec7816114e3565b9c50506000198103610ee0575050505050505050610d61565b8660030154811015610f9c576000610ef7886110b5565b90508015610f56578b610f09816114e3565b60018a0154604051858152919e506001600160a01b031691508a907fe28026915af2d467e2e22de48fd06f32fc2dfeef76badc0dac877f8d877544509060200160405180910390a3610f9a565b610f60898b610ff1565b8a610f6a816114e3565b604051909c508a91507f3ba88dbd17f56b4d283dc25a121073c946c9052c9829a3c4147dcc1841ce068e90600090a25b505b5050505050505b5050610d61565b60408051858152602081018590529081018390527f188dffc590872dc919b0e448791f95e29ebd499b88d4318fc474dfc17aac6e3e9060600160405180910390a150505050565b6000828152600360205260408120600601805460ff1916905560045461101990600190611575565b90508082146110785760006004828154811061103757611037611515565b90600052602060002001549050806004848154811061105857611058611515565b600091825260208083209091019290925591825260059052604090208290555b600480548061108957611089611588565b600082815260208082208301600019908101839055909201909255938152600590935250506040812055565b60028101546004808301548354604051636eb1769f60e11b81526001600160a01b03918216938101939093523060248401526000931691829063dd62ed3e90604401602060405180830381865afa158015611114573d6000803e3d6000fd5b505050506040513d601f19601f8201168201806040525081019061113891906114b4565b10156111475750600092915050565b82546004808501546040516323b872dd60e01b81526001600160a01b03938416928101929092523060248301526044820152908216906323b872dd906064016020604051808303816000875af19250505080156111c1575060408051601f3d908101601f191682019092526111be9181019061159e565b60015b6111ce5750600092915050565b806111dd575060009392505050565b5060048381015460405163095ea7b360e01b8152736ae43d3271ff6888e7fc43fd7321a503ff7389519281019290925260248201526001600160a01b0382169063095ea7b3906044016020604051808303816000875af1925050508015611261575060408051601f3d908101601f1916820190925261125e9181019061159e565b60015b61126e5750600092915050565b506002830154600480850154600186015460405163617ba03760e01b81526001600160a01b0394851693810193909352602483019190915291909116604482015260006064820152736ae43d3271ff6888e7fc43fd7321a503ff7389519063617ba03790608401600060405180830381600087803b1580156112ef57600080fd5b505af1925050508015611300575060015b61138e5782546004808501546040516323b872dd60e01b815230928101929092526001600160a01b0392831660248301526044820152908216906323b872dd906064016020604051808303816000875af192505050801561137e575060408051601f3d908101601f1916820190925261137b9181019061159e565b60015b1561138557505b50600092915050565b50600192915050565b6020808252825182820181905260009190848201906040850190845b818110156113cf578351835292840192918401916001016113b3565b50909695505050505050565b6000602082840312156113ed57600080fd5b5035919050565b80356001600160a01b038116811461140b57600080fd5b919050565b60006020828403121561142257600080fd5b61142b826113f4565b9392505050565b60008060008060008060c0878903121561144b57600080fd5b611454876113f4565b9550611462602088016113f4565b9450611470604088016113f4565b9350606087013592506080870135915060a087013590509295509295509295565b6020808252600990820152682737ba1037bbb732b960b91b604082015260600190565b6000602082840312156114c657600080fd5b5051919050565b634e487b7160e01b600052601160045260246000fd5b6000600182016114f5576114f56114cd565b5060010190565b8082018082111561150f5761150f6114cd565b92915050565b634e487b7160e01b600052603260045260246000fd5b60008060008060008060c0878903121561154457600080fd5b865195506020870151945060408701519350606087015192506080870151915060a087015190509295509295509295565b8181038181111561150f5761150f6114cd565b634e487b7160e01b600052603160045260246000fd5b6000602082840312156115b057600080fd5b8151801515811461142b57600080fdfea26469706673582212206aa57c9ef31413bdc4e2acd01415c358eafbe0501a5ca64e48c691e00c4eb96464736f6c63430008180033",
  "linkReferences": {},
  "deployedLinkReferences": {}
}